:020000040800F2
:1000000000000220E9040008CD040008AD04000847
:10001000B5040008BD040008C50400080000000085
:10002000000000000000000000000000390500088A
:1000300039050008000000003905000839050008EE
:100040003905000839050008390500083905000898
:100050003905000839050008390500083905000888
:100060003905000839050008390500083905000878
:100070003905000839050008390500083905000868
:10008000390500083905000839050008000000009E
:10009000000000000000000000000000390500081A
:1000A0003905000839050008390500083905000838
:1000B0003905000839050008390500083905000828
:1000C0003905000839050008390500083905000818
:1000D000390500083905000839050008000000004E
:1000E000390500083905000839050008000000003E
:1000F00000000000000000000000000039050008BA
:10010000000000003905000839050008390500081D
:1001100000000000000000000000000000000000DF
:1001200039050008390500083905000839050008B7
:100130003905000800000000000000000000000079
:100140000000000000000000000000003905000869
:100150003905000839050008390500083905000887
:100160003905000839050008000000000000000003
:10017000000000000000000000000000000000007F
:100180000000000039050008000000000000000029
:080190003905000839050008DB
:10019800044B054A4FF4803199619A61BFF35F8F30
:1001A80000BFFDE7000002404000BF0030B49DF8EA
:1001B80008400D4DE40144EA8313400000F01E009E
:1001C80043EA42120243D3431B0403F47F031A4356
:1001D8004FF48033AB61AA61BFF35F8F09B101238C
:1001E800AB6130BC704700BF000002401D4B18785F
:1001F80028B11D4A1D4B11688B4301D00020704760
:1002080050681B4B1B4903408B42F7D193684FF64C
:10021800FC410B4041F208018B42EFD1164BD3F859
:10022800883003F47003B3F5700FE7D1134B1B68E4
:1002380003F00703032BE1D111490B6803F4404392
:10024800B3F5404FDAD14B6813F48043D6D0536BE3
:100258001B06D3D4126B0B4B1A420CBF0120002093
:10026800704700BF70000020003802400000020202
:10027800FF7F430F1932400500ED00E0003C0240CB
:1002880000700040001060006249634B0A6B6348CD
:1002980042F0050270B50A634FF47F020E6B9A6153
:1002A8001A685F4C5F4D224042F4AA4242F0550260
:1002B8001A605A6822F0FF025A609A6822409A60CF
:1002C800DA6822404FF40054DA6084610268564CC0
:1002D800564B22F0406242F08062026000222A609F
:1002E8000A6C42F080520A640A6C226842F4404266
:1002F80022600A6842F4803284B00A6002E0013B5E
:1003080000F085800A689503F9D50A68474B41488B
:1003180022F080720A6001E0013B78D00268940103
:10032800FAD4434B434A426040F203721A6082682F
:100338003E4B384922F47C4222F0F00242F48052CB
:100348008260026842F08072026001E0013B5ED088
:100358000A689001FAD5354B374901E0013B56D080
:100368000A685204FAD52B48304A8368334923F087
:10037800030343F00203836001E0013A47D00B68AE
:1003880003F00C03082BF8D100F0DEF82C4A2D4BB3
:1003980012689A423BD12C4AD2F8883043F4700351
:1003A800C2F88830BFF34F8FBFF36F8F4FF07F5283
:1003B8004FF0804301920293DDED017A9DED027AC0
:1003C80067EE877AB5EE007A77EE877AB0EE0A7A2A
:1003D800CDED037ADDED037AF4EE477AF1EE10FA0B
:1003E80015D10C4A1948116C41F0010111644FF004
:1003F8008043126C002142F20F7401221960D96007
:100408009C62027004B0BDE87040FFF7EFBE0020A8
:1004180004B070BD003802400000024000080240ED
:100428000000FFFF10E000E00070004000093D0000
:10043800003C024019324005047000400838024070
:100448000000002000E1F50500ED00E0700000204C
:1004580018B3F0B4DFF844C000252C464FF08043B1
:10046800012709266045014628BF614601EB810244
:100478005200013A1C60DA625C625F611C611E60B6
:100488001A69D20703D400BF1A69D207FBD5401AEC
:100498001D601D61E6D1F0BC70477047A086010061
:1004A80030BFFDE708B5FFF773FE00BF08B5FFF7DB
:1004B8006FFE00BF08B5FFF76BFE00BF08B5FFF77A
:1004C80067FE00BF08B5FFF763FE00BF08B500F080
:1004D80085F830BFFDE700BF704700BF704700BF19
:1004E800DFF834D000F026F80C480D490D4A0023F7
:1004F80002E0D458C4500433C4188C42F9D30A4AD1
:100508000A4C002301E013600432A242FBD304F03A
:100518007FFAFFF7DBFF7047000002200000002091
:100528006C000020E8A7000870000020089E00204A
:10053800FEE70000034AD2F8883043F47003C2F89B
:100548008830704700ED00E0164A936803F00C030A
:10055800042B0CD0082B0CD0134B124A134892686A
:100568001349C2F30312825CD3400B607047114BEE
:10057800F3E75068516852684302C2F388124CBFCF
:100588000C4B094B01F03F01B3FBF1F303FB02F302
:10059800044A5268C2F3014201325200B3FBF2F33B
:1005A800DBE700BF003802400024F400B054000824
:1005B8000000002040787D0130B583B00022064D50
:1005C8000092114601232860FFF7F0FD03B0BDE853
:1005D8003040FFF765BF00BF049E00202DE9F04FB3
:1005E80083B0FFF751FE002800F0A080DFF85C918F
:1005F800DFF85CB10126002300931A461946184615
:10060800FFF7D4FDFFF7F2FD002800F08E80042EDE
:100618004FF4006276D949493046082E98BF5946AA
:1006280001F024FC002300287FD018460093012203
:100638001946FFF7BBFD4FF47A700025FFF708FF56
:100648002B462A46294630460095FFF7AFFD012084
:10065800FFF7FEFEFFF7CAFD0446002865D059F8EB
:10066800047B06F1FF38012100952B462A463046C7
:10067800FFF79CFD1FB95EE00135AF423FD0304621
:1006880001F090FC0028F7D104464FF0000ACDF89D
:1006980000A05346524651463046FFF787FD284B87
:1006A80043F82850002C40D0BD423ED1FFF79EFDB4
:1006B80000283AD0304601F07DFDB0B3304601F055
:1006C8004DFF01361F4B0D2E43F8280093D101240E
:1006D80022465346514650460094FFF767FD4FF4B3
:1006E800FA60FFF7B5FE009453465246514650460D
:1006F800FFF75CFD03B0BDE8F04FFFF7D1BE04463D
:100708003D46C2E71049304601F0B0FB68B100230E
:100718001846009301221946FFF748FD012E41F2C1
:10072800883018BF4FF47A7087E7304603B0BDE8C9
:10073800F04FFFF741BF3D46A7E700BFF064000850
:10074800D49D0020A49D0020F0540008C054000847
:10075800F05C00082DE9F04F85B0431E02934C1E53
:1007680000F10F0C13F8012F14F8015F9C4582EA81
:1007780005021A70F6D101F10F03019301F19F03ED
:100788000393DFF860A100F110030093029B13F8B4
:10079800012F1AF802201A709C45F8D14578447B3D
:1007A800417A42798378877A867945734472857B62
:1007B800C47841714270C179C27A8372C37B8770F1
:1007C80086738571C471C172C273C370074697F886
:1007D80000907C78BE7897F803804FEAD915E10934
:1007E8006B00F2091D444B00194453001A444FEAA8
:1007F800D8134FEA430B5B4405EBC50501EBC10178
:1008080002EBC20284EA060E81EA440182EA460249
:1008180085EA490589EA040403EBC303EDB28EEACD
:10082800080BD2B289EA06068EEA090E88EA0404A1
:1008380083EA4803C9B25440DBB288EA060685EA6F
:100848000E0E4E405C4085EA0B0B83EA0E03FB70EC
:1008580081EA0B01009B397072407A70BC700437D2
:10086800BB42B4D1DDE9011313F8012F11F8014F90
:100878009C4582EA04021A70F6D1019B039A103350
:100888009A42019382D1029B13F8012F1AF8022091
:100898001A709C45F8D14278437A417B4273427979
:1008A8004371837A41724270817882798370C37808
:1008B8008172817B8273C279C371C37B8171C3707A
:1008C800C17A029BC272039AC17313F8011F12F80E
:1008D800010F9C4581EA00011970F6D105B0BDE809
:1008E800F08F00BF1C6E0008F0B41F4CB4F800680D
:1008F8008446A6B34FF0FF310D460023201D0EE0BD
:10090800B1F1FF3F08D0AA4206D104EBC1023F5A19
:100918009288974238BF19460133B3420AD054F837
:100928003320AA424FEAC307EAD219460133B34239
:100938001546F4D1CB001A46013E04EBC601A518B2
:1009480003C9AD88A258ACF80450234483E80300D7
:10095800A4F800686046F0BCCCF8002070476FF03F
:1009680007021346E8E700BF74000020002944DDB1
:100978002DE9F04F83B0834600F1FF394FF00008AE
:10098800531E40468944CBF1010A019308F1010343
:10099800994228DD0BEB0803012405E0FF2C0FD05A
:1009A80099455FFA8EF415D093F800C00AEB030559
:1009B8001E4613F8017FBC4504F1010EA846EDD090
:1009C8001454019C33780230A9422354DEDC03B06E
:1009D800BDE8F08F1454431C1BF80510D1540230A5
:1009E80003B0BDE8F08F0123135402301BF8083020
:1009F800013A135403B0BDE8F08F0020704700BFE0
:100A0800A1B103460129007810700FDD70B45E1E95
:100A18000E441D4601336C782D78B342A4EB0504CF
:100A280002F8014FF5D1084670BC70470846704778
:100A38002DE9F04F002985B0CDE902025BDD4FF0CA
:100A48000008C646CDF80480C446934600F1FF3A34
:100A5800029B13F80E308BF80230019B8BF8008054
:100A68000EF101060333B1428BF801C0009339DD62
:100A7800FE2E0BF1030B3CDDAEF1FE07029B4FF09F
:100A88000009CC4603EB0E080AEB07004246002398
:100A980008E010F8015F12F8014FA54205D10133B3
:100AA800FF2B02D09C198C42F3DB9C45BCBF9C46B3
:100AB800A6EB0709774507F1010301D01F46E3E7D5
:100AC8000CEB060E8E455FFA89F85FFA8CFC0DDB9D
:100AD800039A01990098531802F8008083F804C01B
:100AE8004B1D0093009805B0BDE8F08F009B019363
:100AF800AEE70027C2E700230093009805B0BDE8E1
:100B0800F08F00BF2DE9F04FADF21C5DCDE901205B
:100B1800002800F0EF80B1F5006F884600F2EA8007
:100B2800019C002C00F0E6804FF4847200212046DE
:100B380003F0AEFF00254FEA182384F800806370A5
:100B4800A570E570B8F1000F00F0E680294641F283
:100B58000442BB4803F09CFF2946029D46AC6B1E2D
:100B68001E4620464FF48062039303F091FF3146FE
:100B78000B4611F8010F023354F820205B1B013299
:100B8800984544F82020F3DCAD4D002305F60239E2
:100B980005F6021E1A4645A90DF214574FF0010C2E
:100BA80051F8040F05EBC3045E1C50B145F833003F
:100BB80090B2B3B2A080A5F8003802F809C02EF8A8
:100BC80012008F4202F10102EAD19E4E012B06F576
:100BD800807444D94FF4807906AF04A8FFF784FEE7
:100BE8003846FFF781FEB5F800E83968049A954B56
:100BF800BDF81400B7F804C005EBCE0B0A440EF19B
:100C0800010A45F83E209049ABF804901FFA8AFA89
:100C18006FF43062CE46A5F800A809F101099D18C5
:100C28001FFA89F9491B03E062450BD0A34213D090
:100C380013F8012F002AF9D031F813208242A3F5C6
:100C4800407BF1D121F813E09BF80020A34202F188
:100C580001028BF80020EBD1BAF1010FBDD8794B16
:100C68004FF0000906A913F8012F2AB15A1E921B4A
:100C780001F8092009F101099C42F4D1B9F1010FE9
:100C880043D025DD0DF1170303EB090709F1FF3EFA
:100C980006AE4FF0000C0CF1010CE145C8BF33461D
:100CA80003DC11E02CD09F420ED0327813F8011FDC
:100CB800AC18681894F8024890F802088442F1D9F0
:100CC80031701A709F42F0D1E64506F10106E2D173
:100CD800B9F1000F55D006AF3C4607EB09013A467B
:100CE80001E091421ED012F8013B2B4493F80238E0
:100CF800202BF6D94FF0FF300DF21C5DBDE8F08FC8
:100D08008A42D0D931701A70DCE79DF818302B442C
:100D180006AF83F80298DFE74FF484700DF21C5D8C
:100D2800BDE8F08F019B49494FF4807203F1080038
:100D380003F0A0FE17F801092B18291893F80238B8
:100D480091F802188B424FF00002B94417D20133D0
:100D5800DBB299424FEA4202F9D100F5C07305EBC4
:100D6800C303A1459A60197102F1010211D014F868
:100D7800010F0B46291891F802188B42E7D3194640
:100D8800EBE7019B31494FF4807203F1080003F04F
:100D980071FE0399029800260B4611F8012F05EB06
:100DA800C202023392F8042C1B1A98451644F3DC4D
:100DB800019C029F26714FEA166E002084F807E016
:100DC800330A310CDDF80CE084F80801C7F1010C96
:100DD8006371A1710246074604F58474A9461EF89A
:100DE800013FDB0003F6044309EB030119F8033064
:100DF8004D68591EBBB125FA01F314F800A0C2F1E1
:100E0800070B03F0010303FA0BF3013243EA0A0369
:100E1800082A235405D10130B6EBC00F88BF2754E8
:100E280000220139E7D20CEB0E039845D7DC002AE3
:100E3800C8BF013000F584700DF21C5DBDE8F08F6D
:100E480074000020750B0020FEF2FFFF76080020DA
:100E58002DE9F04FB3B08A460092013B06AA0AACCE
:100E680013F8011F02F8011BA242F9D1584EDFF80E
:100E780064E10DF123014FF0010C102203AF02AB26
:100E88000C4614F8015F03F8015BBB42F9D1130764
:100E98005FD09DF8083011F80B8C4D1D0DF1090439
:100EA80083EA0803BC4205F8013B09D014F8013B6A
:100EB80015F8108CBC4283EA080305F8013BF5D10C
:100EC8000432B02A01F10401D9D1BAF1000F7DDD55
:100ED8000AF1FF330193AAF1100923F00F03A9EBDC
:100EE8000309009B00EB0A08544603EB0A070DF1BF
:100EF800170613E006A902A8FFF72CFC0DF1080C51
:100F0800BCE80F00103C07EB050CA1457851CCF864
:100F18000410CCF80820CCF80C3036D0102CA3469E
:100F2800A8BF4FF0100B5A46A8EB040102A803F023
:100F3800A1FD0F2CC4F10005DCDCCBF110030BF193
:100F4800FF3202A9DBB20A4402F8013FB242FBD1E8
:100F5800D0E79DF809301EF80C809DF808909DF8A0
:100F68000B509DF80A40F35C16F80990755D345DE6
:100F78008DF80B9083EA08030CF1010C8DF808300A
:100F88008DF80A508DF8094085E7019B23F00F057D
:100F980010351AF00F0F15D10DF107030DF11701D8
:100FA800102203F8012F9942FBD106A902A802AC2E
:100FB800FFF7D0FB0FCC009E741970516160A260DE
:100FC800E3601035284633B0BDE8F08F0025E0E730
:100FD8001C6E0008106E00082DE9F04FCDB00DF121
:100FE8002C0C039062461BAE4B780D78CC78887831
:100FF8001B0443EA0563234343EA002342F8043F02
:10100800964201F10401EFD13CAD0CAA966B134650
:1010180052F8040F5C6A1F684FEAF64383EA764386
:101028004FEAB04183EA96233C4481EAF011234415
:1010380081EAD0010B449542D363E7D1039BDFF8E3
:10104800E8B0D96858699A691D685F689E681C6924
:10105800DB690493334B01934BAB0293DDF810909B
:10106800059506970796089109940A900B928A4667
:10107800804696465B460BE0B2463E462F461546EE
:10108800019AF146C646A0461C4652F8043F019212
:101098004FEAF4212EEA040081EAB41104EA0802B6
:1010A80081EA746142405CF8040F0A4487EA060B3F
:1010B8004FEA7531024481EAB5010BEA050B07EAEC
:1010C800060081EAB5518BEA0000084402994A44B7
:1010D8001A44614502EB0A030244CDD10599114433
:1010E8000A46069929440D46079939440F46089936
:1010F80031440E46099919440A9B23441C460B9B0C
:1011080043441846049B73448C461946039BC3E921
:101118000157C3E9036CC3E905401A60D9614DB0B2
:10112800BDE8F08F106D0008982F8A422DE9F04332
:101138003D4E0F46804614460FCE99B06D460FC5FA
:1011480096E80F003F2F85E80F006BDDA7F14006FA
:1011580026F03F0308F14009994445462946684668
:101168004035FFF739FFA945F8D126F03F0540354E
:10117800A8447D1B2A46414608A803F07BFC18AB0F
:101188002B4401358022382D03F8402C42DD08AB72
:10119800C5F140025819002103F07AFC08A96846F5
:1011A800FFF71AFF3822002108A803F071FCFB178B
:1011B800DE0046EA5776F90000230DF15F07C3F118
:1011C800200521FA03F2A3F1200006FA05F52A43C7
:1011D80026FA00F008330243402B07F80129EED124
:1011E80008A96846FFF7F8FE07AD2246ADF10401ED
:1011F80051F8043FD3701C0E180C8D424FEA13238C
:1012080014705070937002F10402F1D1202019B0CB
:10121800BDE8F08308ABC5F138025819002103F086
:1012280037FCC4E73D46A5E7F06C000830B4046815
:101238000D682C4404601D686C404FEA34441C60FF
:1012480015682C4414600D686C404FEA34540C60E7
:1012580005682C440460186860404FEA30601860E4
:101268001368034413600A6853404FEA736330BC41
:101278000B60704770B50D1F90B004462A466B4648
:1012880010A852F8041F43F8041B8342F9D10A2618
:101298000CAB08AA04A96846FFF7C8FF0DAB09AA5A
:1012A80005A901A8FFF7C2FF0EAB0AAA06A902A862
:1012B800FFF7BCFF0FAB0BAA07A903A8FFF7B6FF00
:1012C8000FAB0AAA05A96846FFF7B0FF0CAB0BAA3B
:1012D80006A901A8FFF7AAFF0DAB08AA07A902A84B
:1012E800FFF7A4FF0EAB09AA04A903A8FFF79EFF06
:1012F800013ECDD1201FADF104020FAC52F8043FDE
:1013080055F8041FA2420B4440F8043FF6D110B030
:1013180070BD00BF2DE9F047A0B01D6804955D6859
:1013280005959D680695DD6807951D69289C0895B3
:101338005D6909959D69DB6926680A950B93A5681F
:101348006368264C009404F11A64254F0E9304F147
:101358000F14244B019304F56D440123B1F10008E7
:10136800CDE902740D960F950C9332DD8246164630
:101378000027694610A8FFF77DFFA8EB070CBCF112
:10138800400F06EB0704A8BF4FF0400C7A1E0CEB89
:10139800040021465244631A23F0030E20ADAE44E4
:1013A80003F003035EF8405C12F8019FDB0025FAA6
:1013B80003F383EA090304F8013BA042EBD10C9B39
:1013C80067440133B8450C93D3DC384620B0BDE8F8
:1013D800F0870027384620B0BDE8F087657870614F
:1013E800322D62796E642033002917DD70B4441EF3
:1013F8000C4866184FF0FF3314F8015F08216B4062
:10140800DD074CBF80EA53035B080139F8D1B442C9
:10141800F2D1DB43002070BC1360704700231360D7
:10142800002070472083B8ED2DE9F04F2DED0C8B8F
:1014380091B00A910F92002800F0BF81002A00F0B5
:10144800BC8101F1FF3EBEF5006F0B4680F0B5810F
:101458001EEA01040E9440F0B081012900F0AB812E
:101468005B10012B04F10104FAD1DFF88083DFF867
:1014780078938644471EC0F1010C4FF0000BC2461A
:101488000120661E0CEB0705002C00F0918100235B
:10149800194600FA03F22A4203D0F21A00FA02F2BD
:1014A800114301339C42F4D1CF4B03EB810308EB8A
:1014B800810117F8012FC1F800B007EE902AF8EE65
:1014C800677ABE45C3ED007ADCD1002C00F0288194
:1014D80001239FEDBD7BBEA7D7E90067B0EE47DAD1
:1014E800F0EE67DA0C93E3180D930C9A012101FAD8
:1014F80002F3079303EBD3730B4104939B000B9305
:10150800042393400993B84B069307F10041B74B66
:1015180005930CEE106A00230CEE901A0893079BB3
:10152800012B40F3C4809FEDAC7B0B9B069A059D75
:10153800991800245BEC17AB4FF000084FF0000936
:1015480000915F1916460394009C206803F00CFC78
:1015580002460B46386843EC1A2B03F005FC52464A
:1015680041EC180B5B4651EC1A0BB0EE489AF0EEC2
:10157800689A03F051FC424641EC1B0B4B4651EC78
:10158800180B03F049FC02460B4651EC1B0B03F009
:101598008BFA524641EC180B5B4651EC190B03F0E1
:1015A8003BFC41EC170B42464B4651EC1A0BB0EE94
:1015B800479AF0EE679A03F02FFC02460B4651EC6F
:1015C800190B03F073FA02460B46306843EC1A2BEA
:1015D80003F0CAFB02460B46286843EC1B2B03F0BA
:1015E800C3FB41EC170B53EC1B2BB0EE479AF0EE04
:1015F800679A51EC180B03F059FA03F005FF53EC06
:10160800192B46F8040B51EC1A0B03F04FFA03F0B0
:10161800FBFE844653EC182B45F804CB51EC1B0B0E
:1016280003F042FA03F0F0FE844644F804CB53EC8E
:101638001A2B51EC190B009403F036FA03F0E4FE70
:1016480053EC1D2B47F8040B5946504603F0E4FBB6
:1016580042464B4641EC1A0B51EC1C0B03F0DCFBE9
:1016680002460B4651EC1A0B03F01EFA41EC170B1D
:1016780053EC1D2B40464946D046D9465BEC17AB88
:1016880003F0CAFB42464B468046894651EC1C0B88
:1016980003F0C2FB42464B4603F008FA039A049B48
:1016A80001329A42039280468946FFF64DAFDDE942
:1016B8000723069913440846099A05990893104484
:1016C80011440A9A06909A4205913FF728AF0C9B5D
:1016D8000D9901338B420C9322D0012202FA03F0B8
:1016E80003F030FB02460B463DA1D1E9000103F0AF
:1016F800BDFC41EC100B41EC180B00F0D9FFB0EE2B
:10170800407AF0EE607AB0EE480AF0EE680A57ECDC
:10171800176B00F079FFB0EE40DAF0EE60DAE4E63D
:101728000A9B314EDFF8C4800F9F06EB8309CDF882
:101738000C90994656F8040B03F016FB02460B462C
:1017480058F8040BCDE9002303F00EFBDDE9002374
:1017580082468B461046194603F05EFB5246044605
:101768000D465B465046594603F056FB02460B466B
:101778002046294603F09AF941EC100B01F038F89D
:10178800484655EC104B03F0DDFA0B460246294655
:10179800204603F06BFC03F037FE039B47F8040B6D
:1017A8009E42C7D10E9811B0BDEC0C8BBDE8F08FEE
:1017B80051464B467DE60E9C57E64FF0FF330E939D
:1017C800F0E700BFAFF30080000000000000F0BFAA
:1017D800075C143326A6A13C000000000000F03F7F
:1017E800182D4454FB211940783400207814002027
:1017F8002DE9F047DDF82090D8B3D2B3CBB3002958
:101808002FDD09F1FF3C9C44C9F100079E464FF0CB
:101818000008B9F1000FD8BF002527DD44464FF076
:10182800000A002CC4F1000504DB1EF80560055D04
:1018380006FB05AA013CBC42F3D15C1E002514F846
:10184800016F64453544FAD175B1BAFBF5F502F874
:10185800085008F10108414507F101070EF1010E92
:10186800D7D10020BDE8F0875FFA8AF502F8085062
:10187800EFE74FF0FF30F5E72DE9F04F2DED048B42
:1018880089B0CDE9060305910192002800F0DC80BB
:10189800002A00F0D980002B00F0D680179A002A81
:1018A80000F0D280169A002A9FED697B40F3C7802A
:1018B800551E57EC176B1D445C1E14F8010F03F0FE
:1018C80041FA02460B463046394603F0EFF8AC427F
:1018D80006460F46F1D147EC196B059B002B40F3E8
:1018E8009980189B5B420393169BC3F1000B00235E
:1018F8000293169B002B4FF000044FF000051BDDF0
:10190800029A079BDDF8188016469F18002EC6F12C
:1019180000030EDBF85C18F8063000FB03F003F058
:1019280011FA02460B462046294603F0BFF8044642
:101938000D46013E5E45E9D1189B012B4FF000068C
:101948004FF0000730DD029B179ACDF810B003F175
:10195800FF3ADDF80CB0D31845EC184B1D46BAF128
:10196800000FCAF1000317DBE85C03F0DBF9019B09
:10197800804613F80A00894603F0E4F902460B464C
:101988004046494603F048FA02460B463046394677
:1019980003F08CF806460F460AF1FF3ADA45DED125
:1019A80055EC184BDDF810B059EC198B00220023C8
:1019B80019EE100A494603F0BFFC22462B4688B3AD
:1019C8003046394603F072F819EE102A4B4603F0F8
:1019D8004DFB04460D4620A3D3E9002320462946A3
:1019E80003F0AAFC0646D8B900220023204629465F
:1019F80003F084FCE8B1019B039A19460132029B6B
:101A08000392059ACE5401339A4202930BF1010BCB
:101A18007FF46FAF002009B0BDEC048BBDE8F08FF8
:101A2800FF26E8E73046394603F040F804460D46FD
:101A3800D1E72046294603F0C7FCC6B2DBE7B0EE83
:101A4800479AF0EE679A48E74FF0FF30E3E700BFA8
:101A580000000000000000000000000000E06F40EF
:101A6800002874D02DE9F04F2DED048B174683B074
:101A7800002A69D00029884666DD07EE901AB8EE7C
:101A8800E78A814678EE087A17EE900A03F06CF937
:101A980002460B4633A1D1E9000103F0E7FA03F04F
:101AA800B3FCF7EE007A87EE880A08EE900AB5EEE6
:101AB800400AF1EE10FAB1EEC09A4ED4F0EE007A78
:101AC80087EE880AB5EE400AF1EE10FAF1EEC09AF8
:101AD80040D409F1FF3308F1FF354D4401934FEA33
:101AE80088090026DDF804B0B24674009FED1C8A10
:101AF800BAFBF9F309FB13A300EE103AB8EE400A5B
:101B0800A24420EE280A00F02BFE1BF8013F07EE46
:101B1800903AF8EE677A5D4527EE800A38EE008A3B
:101B2800E6D1002E14BFF0EE697AF0EE497A27EE7E
:101B3800888A0136B045A7EC018AD3D1002003B0CA
:101B4800BDEC048BBDE8F08F4FF0FF30F7E74FF0A6
:101B5800FF30704700F0AAFEBBE700F0A7FEADE734
:101B680000000000182D4454FB2109402DE9F04FD6
:101B7800834B1D68B5F5847FADF52F7D06D3814B6A
:101B8800814ED3F800807368984504D000200DF585
:101B98002F7DBDE8F08FB468E31DDB0803F584737F
:101BA8009D42F3D1B4EB481FF0D80BAF842200213B
:101BB800384602F06DFF842200212CA802F068FF4D
:101BC8004DA88422002102F063FF06F10B0E704637
:101BD80006F20B134FF0000C09E032B157F822104F
:101BE800013147F822100CF1010C984204D010F88A
:101BF800012F202AF1D9C9E7B8F1000F00F0B4800D
:101C0800BCF1000FC2D0002100208B46CDE90001B5
:101C1800CDE907582CA94FF0000C03914DA902916A
:101C28000122614606970DF5DC790994DC46009C93
:101C38000019019C4CEB04040494069C00180090C5
:101C480054F8040F0694049C4FF0010C6441A2F16F
:101C58002008C2F120052CFA05F50CFA08FB0194BE
:101C68004BEA050BDDE90045241845F100050CFA9F
:101C780002FAAB4508BFA2454FF0000C86D3039C7F
:101C88002546009C45F8044F029C039544F8041F20
:101C98000294744614F8015F954205D1651EA5EBC0
:101CA8000E0509F8015001319C42F3D10132212A75
:101CB800BDD1099CDDE90758002C52D096F80C11CB
:101CC8000023C9119C4601220BE099F80C0101324E
:101CD80040FA0EF000F00100212A40EA41013FF4E9
:101CE80055AF013357F822006FEA030E06EBD3090C
:101CF8000EF0070E10B30DF1B00A5AF822A08A456B
:101D0800A1EB0A0B1AD858450CF1010016D9E04589
:101D18007FF63CAF0DF59A7B5BF822B01B4A59441D
:101D2800A1EB0A0A6EA912F80CC011F80A10614555
:101D38004FF000027FF42AAF84461146A342C4D173
:101D480013F007030BD03544C3F10803E8784FF0CC
:101D5800FF3101FA03F330EA03037FF417AFE045DC
:101D680008D00022104612E75CEA04030CBF0120E9
:101D780000200CE7B2FA82F25209104607E700BFCA
:101D8800A09D0020989D00207C540020989500205C
:101D98002DE9F84F2D4A2E4B12681B68934230D11B
:101DA80032B32C4E2C4DDFF8BCC03146002402273C
:101DB80050B30B78002C45D095F8008011F801EC51
:101DC8004344012C17FB0E333CD011F802EC15F8F4
:101DD800018CC6447344B3F5806F39BFC3F38703DE
:101DE80001310131FF230134A24205F8013FDFD15F
:101DF8001A491B4802F030FEB0FA80F04009BDE8ED
:101E0800F88F0020BDE8F88F0131DFF85C808E463E
:101E180008F1100B1EF8019D4FF0010A0346C34557
:101E28000AFB093309D0B64507D058F804AB1EF8A9
:101E3800019DC3450AFB0933F5D1ACFB03E3C3F3AA
:101E48004703D0E79B080131CDE700BF989D0020EC
:101E5800A09D0020989500208B6D002080540020C4
:101E68008C6D0020398EE3381CA200082DE9F04162
:101E7800DFF828C13F4DDFF828E13F4E471E002319
:101E88000B2F2B608EF80030CCF80030336024D84C
:101E9800B2F5006F904620D8044600295DD0092885
:101EA80016D00C281CD0EAB93449354A354B0B609A
:101EB80042F2040641F60C108B5113501360324A5B
:101EC80000231370314A2C6013700120BDE8F081A3
:101ED800002A47D0501E104204D01846BDE8F081B1
:101EE800002A3FD02A48424602F0C4FD42F20407C5
:101EF80022482349C6F8008041F60C16214BC351ED
:101F0800B8F5006F8B5103600B60D8D12049214B85
:101F180001F500670A4601E0BA4229D083EA433353
:101F280083EA534312F8016B83EA4313D8B286421B
:101F3800F2D00022144B184E1A708020002303E0C0
:101F4800B3F5006F12D0B05C11F8012B0133824257
:101F580003F07F02F4D00023B4E72AB9092801D09E
:101F68000C28A1D14046B9E70846B7E70123A9E7FD
:101F78000122DFE778540020989D00208C7500200E
:101F88007C540020216DA78394950020959500200E
:101F9800989500204D3C2B1A789F0008A09D0020A2
:101FA8009C9D00202DE9F043714B724E1A68002366
:101FB800824289B0337006D1044620B16E4F6F4912
:101FC8003A688A4203D0002009B0BDE8F08341F6A0
:101FD8000C1179589142F6D1DFF8D091D9F8002048
:101FE8008A42F0D142F2040159F801109142EAD133
:101FF800DFF8BC81421EC8F8003013460B2BE2D82C
:10200800DFE803F0AFA89C958D867C6D645232069C
:102018005B4D5C4A29685C48FFF722FD0028D2D155
:10202800286880000028CEDB544A3B689342CAD116
:1020380041F60C12BA589A42C5D1D9F800309342E9
:10204800C1D142F2040259F802209A42BBD1092CAC
:10205800C8F8000005D00C2C03D041F608139842AC
:10206800B1DC01203070AFE7484B494A1B68444D4A
:10207800ADF814301B0CD2F800C08DF816300323CD
:1020880029680293009306AB01934FEA1C4E414A1C
:102098003D48ADF818C005AB8DF81AE0FFF7ECFB2A
:1020A800002890D12868BDE73B4B354D394A93E865
:1020B80003000523009306908DF81C103248296808
:1020C80006ABFFF795FB0028ECD07CE72C4D2D4A9A
:1020D80029682D48FFF7A8F90028A1D073E7284BF5
:1020E80029481968002506AA0695FFF77DF90028F2
:1020F8007FF469AF069B7B60042095E7204A274B55
:10210800116821480093234A254BFFF703F989E713
:102118001B4B204A19681C48FFF708F882E7184A41
:10212800204B116818481B4AFEF792FE7AE7144BB9
:10213800184A19681448FEF7E5FC73E7104B1A4A69
:10214800196811487960FEF773FC0028FFF63BAF69
:10215800043069E70A4B0F4A19680B48FEF750FC30
:1021680060E7074B0B4A19680748FEF7FFFB59E77A
:10217800785400209C9D00207C540020216DA7836A
:10218800989D002090750020989500201C6F0008ED
:10219800206F000880540020246F00085C6F00083E
:1021A8003C6F00082C6F0008845400208C750020B8
:1021B800A09D00202DE9F84FC34B1B68834207D12F
:1021C800C24B1A7822B1C24CC24923688B4203D051
:1021D80000221046BDE8F88F41F60C11615899426B
:1021E800F6D1BD4D2B688B42F2D142F204016958F9
:1021F8009942EDD1431E0B2BEAD8DFE813F0E40037
:10220800C90090008C002A011801790068001600A6
:1022180011000C001600BDE8F84F0120FFF7B8BD0B
:10222800BDE8F84F0020FFF7B3BDAC4B1A78002A81
:10223800CED0AB49AB4B0D681B68B3EB850FC7D14C
:10224800002DC6D0A849DFEDA94ADFEDA93AA94E6D
:102258009FEDA95AA94F9FEDAA4ADFEDAA5A00237C
:1022680026E01C0913F00F0F06EB840440F02681CA
:10227800D4ED006AB0EEE67A27EE057A37EE247AD6
:10228800D1ED007AB0EEE76AB4EE656AF1EE10FAC5
:1022980003F1010301F104019AD877EEE67AF0EE32
:1022A800E77AF4EEC77AF1EE10FA91DC9D4290D00D
:1022B8000C28D6D107EB8304D4ED006AD1ED007A5F
:1022C800B0EEE67A27EE057A37EE047ADAE78E4B37
:1022D8001A78002A3FF47DAF824B1B68042B7FF4E9
:1022E80077AF6268894BD21AB2FA82F2520970E764
:1022F800854B1A78002A3FF46CAF7A4B1A68B2F50E
:10230800006F7FF465AF8249824802F0A5FBB0FAFE
:1023180080F252095DE7BDE8F84FFFF727BC714B23
:10232800D3F800B0BBF1030F7FF652AF6C4A636875
:10233800126893427FF44CAF4FF0040EABEB0E09DA
:1023480029F00109DFF8E4A10026F14404EB0E0CA2
:10235800B24240F2ED80CE453FF43AAF9CF80570AA
:102368000EF10208002F40F08780C3457FF630AF9A
:102378000EF1030EA044ABEB0E0998F804300AF8EE
:10238800063029F001090136F14404EB0E0CDFE7B1
:10239800534B54491B680E689E427FF419AF002EB8
:1023A8003FF417AF5C485D4C0644002302E0B0429E
:1023B8003FF40FAF14F8015F10F8011B2B44DBB298
:1023C8009942F4D004E7474B1F6817F0010E7FF4D9
:1023D800FFAEDFF80CA1002F00F0B580DFF8F0C0E9
:1023E800DAF80080DFF8309174469CF80450002D2C
:1023F8003FF4EEAEA8EB04039D423FF6E9AE621E41
:102408009CF805604A44234612F8011F0133B14283
:10241800A4EB03007FF4DCAEE842F5D10EF1020E26
:1024280077450CF1020C40F28F801C46DDE7364BF5
:102438001A78002A3FF4CDAE2A4B1A68202A7FF476
:10244800C7AE3749334802F007FBB0FA80F25209A9
:10245800BFE62D4B1A78002A3FF4BBAE214B1A6811
:10246800B2F5016F7FF4B4AE2E492A4802F0F4FAAF
:10247800B0FA80F25209ACE69CF80430002B3FF425
:10248800A7AEB3423FF6A4AE911B8F423FF6A0AE73
:102498002548F11A0139731E8519514453443D44A6
:1024A80011F8010F03F8010F9D42F9D13E44B242E1
:1024B8000CF1020C3FF659AFC64649E7B0EE647A14
:1024C800F0EE636ADCE600BF785400209C9D002093
:1024D8007C540020216DA7838C75002095950020E1
:1024E800989D0020A09D00209075002017B7D13836
:1024F80000000000F89F0008ACC5A737787F0008E7
:102508000AD7233CFFFF7F7F94950020339A3E9D96
:102518007877000880540020989500207F54002088
:10252800F8A10008686F00088B6D00208C6D0020F2
:10253800F3457FF44DAE0749074802F08DFAB0FA2B
:1025480080F2520945E63B46DAF80020D31A5A428F
:102558005A413EE6989500208C6D0020224B1A685F
:10256800824207D1214B187830B1214B2148196894
:10257800814202D000207047704741F60C1018586D
:102588008842F7D130B41C4C2168814202D0002027
:1025980030BC704742F2040020588842F7D1092A1B
:1025A8001FD0043404330C2A18BF1C46134B186878
:1025B8000028EDD0431E1248E518013C4FF0FF33C8
:1025C80014F8011F08224B405908DB074CBF81EA69
:1025D80000030B46013AF7D1AC42F1D1D84330BCE5
:1025E80070470434E2E700BF785400209C9D002027
:1025F8007C540020216DA7838C750020A09D0020AD
:102608002083B8ED0000000000B551EC100B264AFD
:1026180021F00043934285B01EDD244A934209DD30
:1026280010EE102A0B4602F03FFA41EC100B05B0F1
:102638005DF804FB684600F093F900F003000128F8
:1026480011D0022825D0E8B19DED021B9DED000BAD
:10265800012001F035FBEAE79FED111B00F0C8FDF2
:1026680005B05DF804FB9DED021B9DED000B01F02C
:1026780027FB53EC102B03F1004300EE903A05B012
:102688005DF804FB9DED021B9DED000B00F0B0FD15
:10269800CDE79DED021B9DED000B00F0A9FDE8E7DD
:1026A8000000000000000000FB21E93FFFFFEF7F72
:1026B80000B551EC100B284A21F00043934285B035
:1026C80025DD264A934209DD10EE102A0B4602F05A
:1026D800EBF941EC100B05B05DF804FB684600F01F
:1026E8003FF900F00300012819D0022826D0E8B1EC
:1026F8009DED021B9DED000B00F07AFD53EC102BB5
:1027080003F1004300EE903A05B05DF804FB9FED3D
:10271800101B002001F0D4FA05B05DF804FB9DED14
:10272800021B9DED000B00F063FDD4E79DED021B3D
:102738009DED000B012001F0C3FACCE79DED021BD3
:102748009DED000B012001F0BBFAD7E7AFF3008045
:102758000000000000000000FB21E93FFFFFEF7FC1
:1027680000B510EE103A204A23F00043934283B09C
:1027780019DDB3F1FF4F04DB30EE400A03B05DF81A
:1027880004FB684600F0E6FB00F00300012811D0C6
:1027980002281FD0B8B1DDED010A9DED000A012025
:1027A80001F004FFEAE7DFED110A01F047FB03B08F
:1027B8005DF804FBDDED010A9DED000A01F0F6FE6F
:1027C800B1EE400ADAE7DDED010A9DED000A01F0FD
:1027D80035FBD3E7DDED010A9DED000A01F02EFB84
:1027E800B1EE400ACAE700BFD80F493F0000000019
:1027F8002DE9F0432DED028B8BB055EC104B00F01A
:10280800E5FA284BB0EE408AF0EE608A93F9007042
:102818007B1C12D022462B462046294602F096FD04
:10282800064650B94FF000084FF0000920462946E7
:1028380042464B4602F062FD40B9B0EE480AF0EE5F
:10284800680A0BB0BDEC028BBDE8F083164B089606
:102858000122CDE90445CDE902450092019397B1E3
:1028680042464B464046494602F000FC022FCDE95D
:1028780006010AD102F0C6F821230360089B63B958
:102888009DED068BD9E7CDE90689684601F064FF1E
:102898000028EFD0089B002BF2D002F0B3F8089B79
:1028A8000360EDE7040000202CA2000810B52DED10
:1028B800028B8AB0B0EE408A00F096FC254B93F963
:1028C8000040631C09D0B4EE488AF1EE10FA04D631
:1028D800B5EEC08AF1EE10FA03D40AB0BDEC028B53
:1028E80010BD01231C4A009318EE100A0023019220
:1028F800089302F039FA0022CDE90401CDE902017A
:102908000023BCB11046194602F0B0FB022CCDE9F9
:10291800060111D102F076F821230360089B9BB9C8
:10292800DDE9060102F070FD00EE100A0AB0BDEC08
:10293800028B10BDCDE90623684601F00DFF002883
:10294800E8D0089B002BEBD002F05CF8089B0360F2
:10295800E6E700BF0400002034A2000800000000E1
:102968002DE9F04F53EC102B2DED048B924923F0F9
:1029780000458D4289B0044640F38F808F498D42CF
:102988009B462DDCBBF1000F194610EE100A80A300
:10299800D3E9002340F3C78102F086F8884B9D42B3
:1029A80006460F4600F091807BA3D3E9002302F08E
:1029B8007BF802460B46C4E900233046394602F04C
:1029C80073F875A3D3E9002302F06EF8C4E9020195
:1029D8004FF0010A504609B0BDEC048BBDE8F08FFA
:1029E80078498D4240F3948077498D4210EE100A61
:1029F80061DC4FEA255AAAF2164AA5EB0A51164697
:102A08000F4602F0B9FC02F09DF98046894630462F
:102A1800394642464B46CDE9028902F045F86B4BF0
:102A2800002202F0F9F90F46064602F0A5FC054619
:102A380002F088F902460B4630463946CDE90423B0
:102A480002F032F8614B002202F0E6F902460B462A
:102A5800CDE906230022002302F046FC002800F0FE
:102A68006081002D0CBF01230223594A01920221E3
:102A78005246009102A8214600F0FAFCBBF1000F73
:102A88008246A7DA6268E36802F1004203F1004374
:102A9800C0F1000A6260E3609CE7002000214FF06B
:102AA800000AC4E90201504684ED000B09B0BDECF0
:102AB800048BBDE8F08F194601F0F6FF4FF0000ACD
:102AC800C4E90201C4E9000184E735A3D3E900237E
:102AD80001F0EAFF34A3D3E9002306460F4601F0CC
:102AE800E3FF02460B46C4E900233046394601F0AD
:102AF800DBFF2DA3D3E9002301F0D6FF4FF0010A35
:102B0800C4E90201504609B0BDEC048BBDE8F08F62
:102B180001F094FD57EC106B10EE100A24A3D3E9D2
:102B28000023394602F078F92A4B002201F0BEFF53
:102B380002F022FC824602F005F915A3D3E900232E
:102B48008046894602F068F902460B463046394607
:102B580001F0AAFF10A3D3E9002306460F4640461A
:102B6800494602F059F9BAF11F0F49EC198B47ECA5
:102B7800186B8046894631DC174B0AF1FF3253F84F
:102B88002230AB422AD002460B4630463946A4E0F2
:102B980000004054FB21F93F3163621A61B4D03D13
:102BA8000000601A61B4D03D7370032E8A19A33BEC
:102BB80083C8C96D305FE43FFB21E93F7BD9024000
:102BC800FB21F93FFB213941FFFFEF7F00007041F6
:102BD800BCA200080000E03F3CA2000842464B4669
:102BE80051EC180B01F060FF0A46C2F30A53C3EB1D
:102BF8001553102B0146064617464FEA255573DD37
:102C080069A3D3E9002351EC190B02F005F959EC3B
:102C1800188B06460F4632463B4618EE100A4946C0
:102C280001F042FF41EC180B404653EC182B494683
:102C380001F03AFF32463B4601F036FF5CA3D3E988
:102C4800002306460F4651EC190B02F0E5F8324610
:102C58003B4601F029FF8046894642464B4651ECE7
:102C6800180B01F021FF0A46C2F30A53ED1A312D61
:102C780001460646174637DD50A3D3E9002351EC39
:102C8800190B02F0C9F856EC185B80468946424693
:102C98004B4618EE100A314601F006FF41EC180BBE
:102CA800314653EC182B284601F0FEFE42464B46AF
:102CB80001F0FAFE43A3D3E9002306460F4651EC80
:102CC800190B02F0A9F832463B4601F0EDFE8046AA
:102CD800894651EC180B42464B4601F0E5FEC4E923
:102CE800000106460F4601E0C4E9001232463B46A1
:102CF80051EC180B01F0D8FE42464B4601F0D4FEC9
:102D0800BBF1000FC4E90201BFF664AE07F100454C
:102D180001F10043C4E90065C4E90203CAF1000AED
:102D280058E60323A1E601F0C1FE234B9D42064667
:102D38000F4616D01AA3D3E9002301F0B7FE0246C6
:102D48000B46C4E900233046394601F0ADFE14A312
:102D5800D3E9002301F0AAFE4FF0FF3AC4E90201CB
:102D680038E611A3D3E9002301F0A0FE10A3D3E9AC
:102D7800002306460F4601F099FE02460B46C4E9B9
:102D880000233046394601F08FFE09A3D3E900231A
:102D980001F08CFE4FF0FF3AC4E902011AE600BFC9
:102DA8003163621A61B4D03D0000601A61B4D03D4D
:102DB8007370032E8A19A33BFB21F93F0000002EF4
:102DC8008A19A33BC14920259A837B392DE9F04113
:102DD8005F4A57EC106BBA4300F09880002F10EE52
:102DE800104A3B464EDD39155BD0C3F31303CA07BF
:102DF80043F48013A1F2FF3E03D45B0003EBD473CA
:102E08006400E20F4FF0000C02EB43034FEA6E0E32
:102E18006400664616254FF40012B118994202DC88
:102E28005B1A8E1894445B00013D03EBD4734FEAA0
:102E380052024FEA4404F0D12F4620204FF00042BE
:102E480009E03ED0E10F01384FEA520201EB43039B
:102E58004FEA44043ED0B34202EB0501F1DD0029FC
:102E680001EB020509DBB0469B1BA14288BF03F1B9
:102E7800FF33641A17444646E4E7002DF3DB06F1F6
:102E88000108F1E727F00042324336D0002F4DD138
:102E98003946E20A153964051346002AF9D0D702E3
:102EA80051D400205B00DE02054600F10100F9D58F
:102EB8001A4623468440C0F12000C3401343491BEF
:102EC80093E7A142BED8002901EB0205D5DB98465D
:102ED8000023CEE7234312D178084FEA6C0101F1B1
:102EE8007F511CF0010F01F5001118BF40F00040A0
:102EF80001EB0E53024643EC102BBDE8F0817B1C1E
:102F080016BF781C0CF1010C4008E6E710EE102AF9
:102F180010EE100A3B46394601F07EFF32463B462A
:102F280001F0C4FD41EC100BBDE8F08110EE102A51
:102F38003046394601F0B8FD02460B4602F096F8D5
:102F480041EC100BD9E7234620204FF0FF35B4E7BA
:102F58000000F07F70B510EE103A954A23F0004457
:102F6800944286B0054668DD924A944210EE106A93
:102F78001ADC002BDFED907A904A24F00F0440F31E
:102F8800F180944270EE677A66D09FED8D7A77EE85
:102F9800C76A012077EEE67AC5ED006A77EEC77A50
:102FA800C5ED017A06B070BD864A944267DDB4F17A
:102FB800FF4F49DAE215863AA4EBC25307EE903A7E
:102FC800BDEEE77ADFED806AB8EEC77A77EEC77AAA
:102FD8008DED037A67EEA67ABDEEE77AB8EEC77A8A
:102FE80077EEC77A8DED047A67EEA67AF5EE407A29
:102FF800F1EE10FACDED057A40F0A380B5EE407AF7
:10300800F1EE10FA14BF0223012370490191022145
:10301800009103A8294600F093FF002EC2DA95ED2F
:10302800007AD5ED017AB1EE477AF1EE677A40423F
:1030380085ED007AC5ED017AB4E7002285ED000A36
:103048004260002006B070BD70EE407A0020C5EDE9
:10305800017AC5ED007AA5E7DFED5D6A9FED5D7A3F
:1030680077EEE67A012077EEC76A77EEE67AC5ED65
:10307800006A77EEC77AC5ED017A06B070BD01F037
:1030880001FCDFED556A9FED4C6A9FED4D7AF6EE37
:10309800007AE0EE267AFDEEE77A17EE900AF8EE6F
:1030A800E76A1F28A6EEC60A66EE877AB1EE666A58
:1030B8001EDC4A4A411E24F0FF0352F821209342A5
:1030C80016D030EE677A85ED007A30EE470A002E8A
:1030D80030EE670A85ED010ABFF664AFB1EE477AB4
:1030E800B1EE400A85ED007A85ED010A404259E7C4
:1030F80030EE677AE21517EE103AC3F3C753C3EB05
:10310800D454082CDFDDDFED327A9FED327AF0EE11
:10311800405AE6EE275A30EE650AA6EE270AF0EE88
:10312800407AD6EE877A35EEE77A17EE103AC3F38F
:10313800C753D21A192A06DC85ED007AB0EE650A63
:10314800C3E7032361E79FED267A9FED265AB0EE89
:10315800650AA6EE070A75EEC07AE6EE077AD6EE9D
:10316800857AAEE7944270EE277A0ED09FED147AF6
:1031780077EE876A4FF0FF3077EEE67AC5ED006AA2
:1031880077EE877AC5ED017A0CE7DFED116A9FEDDE
:10319800117A77EEA67A4FF0FF3077EE876A77EEEE
:1031A800E67AC5ED006A77EE877AC5ED017AF9E629
:1031B800D80F493FE3CB1640800FC93FD00FC93F16
:1031C80043443537800F49430000804344A4000836
:1031D8000044353708A3852E84F9223FC4A300088C
:1031E80000A3852E32318D24B1EEC00A704700BF8E
:1031F8002DE9F84F57EC106B27F00049B9F1795FCA
:103208002DED048B5BEC11AB71DA10EE100A394628
:1032180002F0B2F8002800F0F68032463B4630460D
:10322800394601F0F9FD7CA3D3E9002304460D4695
:1032380001F0F2FD7AA3D3E9002301F037FC22461E
:103248002B4601F0E9FD78A3D3E9002301F02CFC1B
:1032580022462B4601F0E0FD75A3D3E9002301F0D7
:1032680025FC22462B4601F0D7FD73A3D3E90023A2
:1032780001F01AFC22462B4601F0CEFD70A3D3E9DB
:10328800002301F013FC22462B4601F0C5FD41EC5A
:10329800180B714B00222046294601F0BDFD53EC66
:1032A800182B804689462046294601F0B5FD52462E
:1032B8005B4604460D463046394601F0ADFD0246F0
:1032C8000B462046294601F0EFFB02460B464046D6
:1032D800494601F0E9FB02460B4600205F4901F030
:1032E800E3FBBDEC048B41EC100BBDE8F88F10EE4E
:1032F800102A10EE100A3B46394601F08DFD46A310
:10330800D3E9002304460D4601F086FD44A3D3E922
:10331800002301F0CBFB22462B4601F07DFD42A3A2
:10332800D3E9002301F0C0FB22462B4601F074FDCF
:103338003FA3D3E9002301F0B9FB22462B4601F055
:103348006BFD3DA3D3E9002301F0AEFB22462B46DB
:1033580001F062FD3AA3D3E9002301F0A7FB2B4655
:10336800224601F059FD3E4B994541EC180B90DD82
:103378003C4B99453CDC0022A9F500133749002055
:103388009046994601F090FB41EC190B324B002214
:103398002046294601F040FD42464B4601F084FB99
:1033A80053EC182B804689462046294601F034FD07
:1033B80052465B4604460D463046394601F02CFD20
:1033C80002460B462046294601F06EFB02460B4694
:1033D8004046494601F068FB02460B4651EC190B82
:1033E80001F062FBBDEC048B41EC100BBDE8F88FDB
:1033F8009FED157BDFF87090B0EE479AF0EE679A74
:103408004FF00008C2E7BDEC048B9FED110BBDE83F
:10341800F88F00BFAFF30080D43888BEE9FAA8BDA2
:10342800C4B1B4BD9EEE213EAD529C804F7E923E0B
:103438009015CB19A001FA3E7751C1166CC1563FC1
:103448004C5555555555A53F000000000000E73F75
:10345800000000000000F03F0000E03F0000F03FE7
:103468003233D33F0000E93F0000D23F00000000A4
:103478002DE9F04FADF5197DBB4CA29D089354F88A
:1034880025400594013B12F1140F04900B9103930E
:10349800C0F22683B549D31E81FB0301DB17C3EBBA
:1034A800A10307930133A3EB8303DB00D31806932F
:1034B800079A039BD41A059AD6181AD40136A39FE3
:1034C8004FF000084FF00009264420AD08E057F8F7
:1034D800240001F037FC0134B442E5E8020108D0C9
:1034E800002CF4DA013440464946B442E5E80201CA
:1034F800F6D1059B002BC0F2C883089BDDF80C9021
:10350800DA000292059A1A440192049A20A901EB62
:10351800C30A0DF5E07B02EBC308039B002B4FF0B9
:1035280000044FF0000511DB049E574677E902239B
:10353800F6E8020101F070FC02460B4620462946D7
:1035480001F0B4FA464504460D46EFD1019B09F156
:1035580001099945EBE802450AF1080ADDD1059A07
:1035680004980CA901EB820302990144083B8B469D
:103578000BA90993134601EB82020A920193019A5F
:1035880098A901EBC203002A53E928452ADD0DF565
:10359800E07909EBC2080DF1300A754B002220468C
:1035A800294601F039FC01F0E7FE01F0CBFB714B35
:1035B800002206460F4601F02FFC02460B46204625
:1035C800294601F071FA01F0D7FE044678E9022392
:1035D8004AF8044B3046394601F068FAC8450446B3
:1035E8000D46DAD1DDF8189045EC104B484601F04D
:1035F800B7F855EC104B00224FF07F5310EE100A2D
:10360800294601F009FC41EC100B01F021F85A4B56
:1036180051EC100B002201F0FFFB02460B4620463E
:10362800294601F041FA0D46044601F0A5FE804600
:1036380001F088FB0B4602462946204601F034FA81
:103648004B46002B06460F4640F39880019A0CA97A
:10365800013AC9F1180351F8225045FA03F101FA69
:1036680003F3EB1AC9F117050CA843FA05F5002D69
:1036780040F82230884400F38B8000220023304633
:10368800394601F031FE002800F05682019B059A68
:1036980003F1FF3A524510DC03F180430CAA013BC9
:1036A8000A9802EB8303002253F80419834242EA82
:1036B8000102F9D1002A40F0DC80059B0CAA013BED
:1036C80052F82330002B40F0CF80099A012352F89A
:1036D800041901330029FAD001994A1CCB18029326
:1036E8009146079B089902EB030A019B0B449846F5
:1036F80020AB0AF1804A03EBC808A39B0AF1FF3A02
:1037080003EB8A0A70AB03EBC20301935AF8040F68
:1037180001F018FB0B46039902460029C8E900236B
:1037280047464FF0000408F108084FF0000511DB88
:10373800049E01E077E90223F6E8020101F06CFB40
:1037480002460B462046294601F0B0F95E4504467C
:103758000D46EFD1019BE3E802450193029B09F175
:1037680001099945D2DD09E7A0A70008ABAAAA2A52
:103778000000703E00007041000020406BD1019BAA
:103788000CAA013B52F82350ED15002D7FF775AFB9
:10379800019B002B08F1010840F3CC810C9C002C04
:1037A80051D1019B012B20D00CAB012253F8044FBF
:1037B800002C4BD0531C0CA9C4F1807441F8224052
:1037C8000199994210DD0CAA0CA852F8232000EBAD
:1037D800830300EB81006FF07F4100E01A688A1ACA
:1037E80043F8042B8342F9D10124069B002B0EDDFC
:1037F800012B00F06A81022B09D1019B5A1E0CABE8
:103808000CA953F82230C3F3150341F82230022DD6
:103818007FF433AF32463B46B949002001F044F902
:1038280006460F46002C3FF428AF06989FEDB00BD4
:1038380000F096FF3046394653EC102B01F034F96E
:1038480006460F4619E701230022B4E70199013221
:103858008A42ABD1C9E7AB4B002201F063FD0028D7
:1038680040F05681054608E7019B5A1C9146029292
:1038780037E70CAB069A53F82A30CDF81C80183A73
:103888000395069273B9019B03F18043023B0CA98F
:1038980001EB830353F804190AF1FF3A183A002997
:1038A800F8D006929FED920B069800F059FFBAF1F6
:1038B800000F55EC104BC0F2DE8170AB03EBCA0B66
:1038C8000CAA0AF10103069302EB83084FEACA0324
:1038D8000BF10809049358F8040D01F033FA224655
:1038E8002B4601F099FA06460F46874B2046294693
:1038F80069E90267002201F08FFA0CAB984504468B
:103908000D46E8D148ABCDE9013ADDF814A0BAF18B
:10391800000F4FF000092CDB77A3D3E90023DFF871
:10392800EC815F4600240025002603E0B14510DB4A
:10393800F8E80223F7E8020101F06EFA02460B46A6
:103948002046294601F0B2F80136B24504460D4634
:10395800ECDA019B029A03EBC9034A45C3E9004527
:10396800ABF1080B09F1010306D0BAF1000F994633
:10397800D2DA00240025ECE7A29BDDF808A0022B90
:103988001EDC002B00F30F8113D1049C019D083429
:10399800002000212C4474E9022301F087F8A54295
:1039A800F9D1039B13B101F1004319460B9BC3E9FD
:1039B8000001079B03F007000DF5197DBDE8F08FA6
:1039C800A29B032BF5D1BAF1000F00F07081019A88
:1039D800049BD318D3E9004502EBCA0B7BE90267C5
:1039E8002046294632463B4601F060F8A046A946E3
:1039F80004460D4622462B463046394601F054F817
:103A08004B46424601F052F8019B5B45CBE9004525
:103A1800CBE90201E2D1BAF1010F40F34881019AE2
:103A2800049B0AF1005A0AF1FF3A13444FEACA010B
:103A3800D3E9004501F1080A029192440DF5947BFF
:103A48007AE902672046294632463B4601F02EF8BD
:103A5800A046A94604460D4622462B46304639461E
:103A680001F022F842464B4601F020F8D345CAE956
:103A78000045CAE90201E3D1029C019B0026002708
:103A880010341C4403F110053046394674E902230A
:103A980001F00CF8A542F9D106460F46039B002B0E
:103AA80040F0BF80019A0B99D2E90045D2E9022380
:103AB800C1E90223079B03F00700C1E90467C1E9D4
:103AC80000450DF5197DBDE8F08F019B5A1E0CAB22
:103AD8000CA953F82230C3F3160341F8223096E6B6
:103AE80000216FF017030791E0E400BFAFF30080F7
:103AF800000000000000F03F00000040FB21F93FFB
:103B08000000F03F0000E03F0000703E68A700089A
:103B1800019B002B08F10108C8BF02253FF73EAE04
:103B280032463B466349002000F0BEFF02250646A8
:103B38000F46A2E5002458E6069B0395584247EC39
:103B4800106BCDF81C8000F00BFE55EC104B5A4B57
:103B580010EE100A0022294601F0E4FB002856D096
:103B6800564B00222046294601F056F901F004FC84
:103B7800064601F0E7F8504B002201F04DF90B46DC
:103B880002462946204600F08FFF01F0F5FB069B10
:103B9800019C183304F1010A06930CAB43F8240086
:103BA80043F82A607EE6019D069A002005EBC204D0
:103BB800002174E9022300F079FFA542F9D1039BA3
:103BC800002B48D10B9BC3E900010B460199024623
:103BD800D1E9000100F068FFBAF1000F0DDD4AAD30
:103BE8000124F5E80223013400F060FFA245F8DA69
:103BF800039B13B101F1004319460B9BC3E9020172
:103C0800079B03F007000DF5197DBDE8F08F2046EE
:103C1800294601F0B1FB019B0CAA9A4642F8230001
:103C280040E6019B19465A68DB680D688C680B9959
:103C380003F10043CB60079B0D6002F100424A602C
:103C480003F0070007F100428C600E614A610DF530
:103C5800197DBDE8F08F0B9C01F10043C4E9000316
:103C68000B4601990246D1E9000100F01DFFBAF1A7
:103C7800000FB4DCBEE7A29B022B0ADC002B11DC90
:103C88007FF497AE002000218BE6089BDB000293AF
:103C980065E4A29B032B7FF48CAE48AB002600277B
:103CA8000193FBE648AB00200021019387E700263B
:103CB8000027F3E60000F03F000070410000703E6E
:103CC8002DE9F04F55EC104B85B025F00043B3F1CA
:103CD800795F8DED001B039007DA10EE100A294674
:103CE80001F04AFB002800F0898022462B46204636
:103CF800294601F091F806460F4632463B462046D3
:103D0800294601F089F843A3D3E9002382468B466C
:103D18003046394601F080F840A3D3E9002300F08B
:103D2800C3FE32463B4601F077F83EA3D3E90023B1
:103D380000F0BCFE32463B4601F06EF83BA3D3E9E7
:103D4800002300F0B1FE32463B4601F065F839A386
:103D5800D3E9002300F0AAFE039B80468946ABB353
:103D6800DDE900012A4B002201F056F842464B4695
:103D7800804689465046594601F04EF802460B46A1
:103D88004046494600F090FE32463B4601F044F872
:103D9800DDE9002300F088FE1BA3D3E900230646D3
:103DA8000F465046594601F037F802460B46304652
:103DB800394600F07BFE02460B462046294600F0B5
:103DC80073FE41EC100B05B0BDE8F08F02460B46C0
:103DD8003046394601F020F80BA3D3E9002300F060
:103DE80063FE52465B4601F017F822462B4600F068
:103DF8005DFE41EC100B05B0BDE8F08F45EC104BB3
:103E080005B0BDE8F08F00BF495555555555C53F1C
:103E18000000E03F7CD5CF5A3AD9E53DEB9C2B8A90
:103E2800E6E55A3E7DFEB157E31DC73ED561C1198F
:103E3800A0012A3FA6F810111111813F10EE103A87
:103E480023F00043B3F1485F2CDAFDEEC07A17EE99
:103E5800903A002B60D020EE007ADFED314A9FEDDA
:103E6800315ADFED315A9FED316ADFED317ADFEDFE
:103E7800316AA7EE245AE7EE055AA7EE256AE7EE5F
:103E8800067AE7EE276A67EE266A60EEC00AF6EE63
:103E9800007AE7EE260AB7EE000AD7EE270A30EED8
:103EA800600A704720EE007ADFED1D4A9FED1D5A2B
:103EB800DFED1D5A9FED1D6ADFED1D7ADFED1D6AEE
:103EC8001D4AA7EE245A9342E5EE075AA5EE876AE3
:103ED800E6EE077AE7EE876A66EE876AD5DD174A67
:103EE800934214DC03F17F4307EE903AB7EE006A81
:103EF80036EE676A60EEC00AF6EE005AE7EE260A6A
:103F0800D7EE257A77EEE00A36EE600A7047B6EE0D
:103F1800076AF5EE027AEDE7B7EE000A704700BFD0
:103F28004ED747ADF6740F317CF293B4010DD037FC
:103F3800610BB6BAABAA2A3D9999993E0000483F51
:103F48002DE9F04F2DED048BDBB0D74C689D079120
:103F5800111D54F8256004930992834603F1FF3933
:103F6800C0F29D82D31E44BF13460433DB10039373
:103F78000133DB000893DDE908239B1A0693039BB2
:103F880016EB0901A3EB090316D401319FEDC77A9B
:103F9800699819441EAA002BA4BF50F8234007EEC5
:103FA800904A03F10103ACBFF8EEE77AF0EE477AE6
:103FB8008B42E2EC017AEED1002EC0F2E082049B43
:103FC8001EA901EB830446AD4FEA830C4846F71857
:103FD8000BEB8301B9F1000FDFEDB47A09DB224660
:103FE8005B46F3EC016A32ED017A8B42E6EE877AA2
:103FF800F7D10130B842E5EC017A04F10404E9D1C3
:104008000DF1280808EB8603083B05939FEDA99A54
:10401800DFEDA78A0698009609AB03EB860A0BEB3F
:104028000C0446AF5B465AAA02EB8602002E12ED3C
:10403800140A4FEA860B16DD07EB8602414660EE4E
:10404800097AB0EE407AFDEEE77A72ED016AF8EE91
:10405800E77ABA42A7EEE87A37EEA60ABDEEC77A43
:10406800A1EC017AEBD1CDE9010300F059FCB0EEE7
:10407800408AB4EE000A28EE000A00F00BFCF2EECB
:10408800007AA0EE678A0198029BFDEEC89A002884
:10409800F8EEE97A38EE678A78DD06F1FF3CC0F180
:1040A800080258F82C5045FA02F101FA02F2AA1A4D
:1040B80048F82C20C0F1070519EE90CA42FA05F518
:1040C8008C44002D09EE90CA68DCB5EE408AF1EE0A
:1040D80010FA40F0B680009A06F1FF3E724510DCF7
:1040E80006F18042013A08EB820200219C4652F810
:1040F8000439524541EA0301F9D16346002940F0E9
:10410800F280009A013A58F82220002A40F0E6800E
:10411800059A4FF0010C52F804190CF1010C002912
:10412800F9D006F1010BB444DE460499039A8D19BF
:104138005A441EA902F1804201EB85056999013AAA
:1041480001EB820607EB8B0BD6ED017A9FED577AD0
:10415800F8EEE77AB9F1000F06F104062946C5ED35
:10416800007A05F1040509DB1A4601E071ED017AD0
:10417800F2EC016AA242A6EEA77AF7D10EF1010E7F
:10418800E645ABEC017ADFDD66464CE740F09C8003
:10419800721E58F822502D12002D96DD19EE902A25
:1041A800002E02F1010209EE902A40F38E81D8F820
:1041B8000010002974D1012E1CD042464FF0010C8A
:1041C80052F8041F002979D00CF10102C1F5807161
:1041D800964248F82C100CDD58F82210C34408EB1E
:1041E800820200E01168C1F1FF0142F8041B5A4540
:1041F800F8D1012100280CDD012800F047810228B0
:1042080007D106F1FF3C58F82C2002F03F0248F88D
:104218002C20022D7FF459AFB7EE000A30EE488A01
:1042280000293FF452AFCDE9010300F079FB38EEE5
:10423800408ADDE90103B5EE408AF1EE10FA3FF459
:104248004AAFDDE90832B0EE480A981A029601959D
:10425800009E00F065FB9FED167AB4EEC70AF1EEFA
:1042680010FADDE90123C0F25781DFED127A0699D1
:1042780060EE277A0831FDEEE77A0691F8EEE77AE4
:104288005D1CA7EEC70AFDEEE77ABDEEC00A10EE88
:10429800101A48F8231017EE903A48F8253039E0FC
:1042A80001224FF0000C91E7DCA700080000000095
:1042B800000080430000803B0000C93F0CF1010C66
:1042C800B4457FF47DAF95E7F6EE007AB4EEE78A61
:1042D800F1EE10FA80F2E8800025F6E606F1010B0F
:1042E800DE46DC4621E7069858F82E100838334693
:1042F8002A46009E0690754661B903F18043023B49
:1043080008EB8303014653F80409013D08390028E6
:10431800F9D0069106980092B7EE000A00F000FB6B
:10432800002D009AC0F21E814FEA850E46AB03EBC2
:104338000E070EF1040C1FED217A08EB0C03391D52
:1043480073ED017AF8EEE77A434567EE807A20EE5E
:10435800070A61ED017AF3D1002E1FED296A4FF0AB
:10436800000420DB8F48DFED907A3946B0EE467ABC
:10437800002303E09C4208DBB0EC017AF1EC016A0F
:1043880001339E42E6EE877AF4DA5AAB03EB8403F4
:10439800A54243ED287AA7F1040704F1010305D0EB
:1043A800002E1C46DEDADFED807AEEE768990229F6
:1043B8001CDC002900F38B800FD132ABDFED7A7A59
:1043C8009C443CED017A634577EE877AF9D10AB1CE
:1043D800F1EE677A079BC3ED007A19EE903A03F085
:1043E80007005BB0BDEC048BBDE8F08F689B032B26
:1043F800F3D1002D00F0CB805AAB734432A913EDF2
:10440800287A01EB850373ED017AF0EE476A37EEFF
:10441800277A994277EEC77A83ED007A77EEA67A03
:10442800C3ED017AEFD1012D40F3B18005F180454C
:104438005AAB013D9E44AD002B1D1EED287A0B445E
:1044480033A873ED017AF0EE476A37EE277A98427F
:1044580077EEC77A83ED007A77EEA67AC3ED017A14
:10446800EFD10835DFED507A4B19083133ED017A79
:10447800994277EE877AF9D1002A55D10799329A6D
:10448800339BC1ED027A0A604B60A6E706F1FF3C58
:1044980058F82C2002F07F0248F82C20B9E60823AF
:1044A80008930023039366E519EE902A002E02F183
:1044B800010209EE902AC8BF02253FF778AEF7EE51
:1044C800007A37EEC88A0225FFE5002192E632A974
:1044D800DFED357A01EB830333ED017A994277EE0C
:1044E800877AF9D192BB9DED327A079B002DC3EDF7
:1044F800007A77EE677A0BDD33A90123B1EC017AF4
:1045080001339D4277EE877AF8DA0AB1F1EE677ADD
:10451800079BC3ED017A60E7BDEEC00A1D4610EEA9
:10452800101A48F82310F5E6DDED326A9DED337A6E
:10453800079BF1EE677AF1EE666AB1EE477AC3ED52
:10454800027AC3ED006A83ED017A46E7DDED326A4F
:10455800079BB1EE677A002D76EEE77A83ED007A55
:10456800CADCD3E7689B022B0DDC002B14DC7FF43C
:1045780034AFDFED0D7A002A3FF42CAF28E7049B17
:104588004FEA830C3CE5689B032B7FF426AFDFEDF5
:10459800067A002AC8D171E7DFED037A002AA2D093
:1045A800D4E700BFB4A700080000000010EE103ADE
:1045B80023F00043B3F1485F04DAFDEEC07A17EE4A
:1045C800903A5BB360EE007A9FED155ADFED155A0D
:1045D8009FED156ADFED156A9FED157AE7EE855AAE
:1045E80020EE275AA5EEA76AE6EE276AA6EEA77A76
:1045F80030B9DFED106AE7EE876AA6EE850A7047E4
:1046080027EE457AF6EE006AA0EEA67ADFED0A6A92
:10461800D7EE270AE5EE260A30EE600A704700BF9B
:10462800D3C92E2F342FD7B21BEF3836010D50B90E
:104638008988083CABAA2ABEABAA2A3E51EC100BCB
:1046480010EE102A21F0004343EC102B704700BFF6
:1046580051EC100BF8B5C1F30A53A3F2FF35132D33
:1046680010EE106A0C4620DC002D3DDB384F2F4140
:1046780001EA070303431DD033A3D3E9002300F065
:1046880015FA0022002300F057FE48B1002C04DA86
:104698004FF4801343FA05F52C4424EA0704002656
:1046A8002346324643EC102BF8BD332D05DDB5F516
:1046B800806F29D041EC100BF8BDA3F213434FF0E3
:1046C800FF37DF400742F5D01FA3D3E9002300F0EE
:1046D800EDF90022002300F02FFE0028E0D0002C86
:1046E80023DB26EA0706DBE717A3D3E9002300F05C
:1046F800DDF90022002300F01FFE0028D0D0002C96
:104708000ADB00263446CBE710EE102A0B4600F0F1
:10471800CDF941EC100BF8BD24F000430D4A1E43BF
:10472800002E18BF14460026BAE7142D08D001231E
:10473800C5F1340503FA05F5AE1928BFE418D0E72A
:104748000134CEE7AFF300809C7500883CE4377EE7
:10475800FFFF0F000000F0BF0020704700000000BE
:1047680038B553EC102BC3F30A511C46054681BBE0
:1047780010EE101A23F00044214329D019460022D4
:104788003D4B3E4C10EE100A00F046FBA542024697
:104798000B4616DB0C46C1F30A513639294440F260
:1047A800FE70814221DC002947DC11F1350F34DA33
:1047B8004CF250318D4218DC002B27A1D1E90001C1
:1047C80044DB25A3D3E9002300F026FB41EC100BC2
:1047D80038BD40F2FF708142E0D110EE100A194650
:1047E80000F064F941EC100B38BD002B1CA1D1E995
:1047F800000107DB1AA3D3E9002300F00DFB41EC0D
:10480800100B38BD18A1D1E9000115A3D3E9002385
:1048180000F002FB41EC100BF3E724F0FF4424F412
:10482800E004363144EA0153104619460022144B7D
:1048380000F0F2FA41EC100B38BD24F0FF4424F4E8
:10484800E00444EA015343EC102B38BD08A1D1E938
:104858000001B6E7AFF3008059F3F8C21F6EA50157
:104868009C7500883CE4377E9C7500883CE437FEE4
:1048780059F3F8C21F6EA58100005043B03CFFFFFA
:104888000000903C10EE103A23F0004300EE103A7E
:10489800704700BF10EE102AC2F3C7537F3B162B98
:1048A80022F000411ADC002B1EDB1A4919410A428A
:1048B80027D0DFED197A70EE277AF5EEC07AF1EE9F
:1048C80010FA1EDD002A04DA4FF4000040FA03F360
:1048D8001A4422EA010300EE103A7047B1F1FF4F83
:1048E8000FD330EE000A7047DFED0B7A70EE277AAF
:1048F800F5EEC07AF1EE10FA03DD002A02DB9FED37
:10490800070A70470029FFEE007A18BFB0EE670A61
:10491800704700BFFFFF7F00CAF249710000000026
:1049280082B08DED010A019B33F000422AD0B2F12A
:10493800FF4F23D213F0FF4F28D19DED017ADFED11
:104948002A7A2A4B67EE277A9842CDED017A37DB2F
:10495800019BC3F3C752193A0244FE2A1ADD9FEDA0
:10496800240A9FED247A019B002BF0EE407AB8BF11
:10497800B0EE470A20EE270A02B0704730EE000A70
:1049880002B070479DED010A02B07047D20D024493
:10499800FE2AE4DC002A0BDC12F1160F17DA4CF2BF
:1049A80050339842DBDC9FED140A9FED147ADAE766
:1049B80023F0FF4343EAC25300EE103A02B07047B7
:1049C8009FED0D0ADDED017A27EE800AD8E719324E
:1049D80023F0FF4343EAC253DFED097A07EE103AAA
:1049E80027EE270ACCE700BF0000004CB03CFFFFD1
:1049F800CAF24971CAF249F16042A20D6042A28D21
:104A080000000033014B1868704700BF0800002001
:104A180070B50D4D0D4C641BA4100026A64209D19B
:104A28000B4D0C4CFBF758FD641BA4100026A64246
:104A380005D170BD55F8043B98470136EEE755F8A7
:104A4800043B98470136F2E7E8A70008E8A7000802
:104A5800E8A70008E8A7000830B501390024A242F9
:104A680001D1002005E0035D01340D5DAB42F6D0B5
:104A7800581B30BD0A44914200F1FF3300D1704702
:104A880010B511F8014B03F8014F9142F9D110BD4F
:104A980002440346934200D1704703F8011BF9E72B
:104AA80081F0004102E000BF83F0004330B54FEAD7
:104AB80041044FEA430594EA050F08BF90EA020F44
:104AC8001FBF54EA000C55EA020C7FEA645C7FEAD7
:104AD800655C00F0E2804FEA5454D4EB5555B8BFFA
:104AE8006D420CDD2C4480EA020281EA030382EA6B
:104AF800000083EA010180EA020281EA0303362DFD
:104B080088BF30BD11F0004F4FEA01314FF4801CCF
:104B18004CEA113102D0404261EB410113F0004FE1
:104B28004FEA03334CEA133302D0524263EB430398
:104B380094EA050F00F0A780A4F10104D5F1200E36
:104B48000DDB02FA0EFC22FA05F2801841F1000191
:104B580003FA0EF2801843FA05F359410EE0A5F165
:104B680020050EF1200E012A03FA0EFC28BF4CF096
:104B7800020C43FA05F3C01851EBE37101F000454C
:104B880007D54FF0000EDCF1000C7EEB00006EEB59
:104B98000101B1F5801F1BD3B1F5001F0CD34908E3
:104BA8005FEA30004FEA3C0C04F101044FEA44523A
:104BB80012F5800F80F09A80BCF1004F08BF5FEAC1
:104BC800500C50F1000041EB045141EA050130BDA1
:104BD8005FEA4C0C404141EB0101013C28BFB1F5B3
:104BE800801FE9D291F0000F04BF01460020B1FAFE
:104BF80081F308BF2033A3F10B03B3F120020CDAD1
:104C08000C3208DD02F1140CC2F10C0201FA0CF0AE
:104C180021FA02F10CE002F11402D8BFC2F1200C13
:104C280001FA02F120FA0CFCDCBF41EA0C019040C9
:104C3800E41AA2BF01EB0451294330BD6FEA040412
:104C48001F3C1CDA0C340EDC04F11404C4F12002FD
:104C580020FA04F001FA02F340EA030021FA04F30F
:104C680045EA030130BDC4F10C04C4F1200220FA66
:104C780002F001FA04F340EA0300294630BD21FAA4
:104C880004F0294630BD94F0000F83F4801306BF6A
:104C980081F480110134013D4EE77FEA645C18BF5E
:104CA8007FEA655C29D094EA050F08BF90EA020FF5
:104CB80005D054EA000C04BF1946104630BD91EAED
:104CC800030F1EBF0021002030BD5FEA545C05D1F0
:104CD8004000494128BF41F0004130BD14F580042F
:104CE8003CBF01F5801130BD01F0004545F0FE41A3
:104CF80041F470014FF0000030BD7FEA645C1ABFD8
:104D0800194610467FEA655C1CBF0B46024650EA0E
:104D1800013406BF52EA033591EA030F41F400213A
:104D280030BD00BF90F0000F04BF0021704730B5C0
:104D38004FF4806404F132044FF000054FF0000195
:104D480050E700BF90F0000F04BF0021704730B556
:104D58004FF4806404F1320410F0004548BF40422B
:104D68004FF000013EE700BF42004FEAE2014FEA80
:104D780031014FEA02701FBF12F07F4393F07F4F5B
:104D880081F06051704732F07F4208BF704793F05E
:104D98007F4F04BF41F40021704730B54FF4607471
:104DA80001F0004521F000411CE700BF50EA010274
:104DB80008BF704730B54FF000050AE050EA01021D
:104DC80008BF704730B511F0004502D5404261EB8D
:104DD80041014FF4806404F132045FEA915C3FF4CE
:104DE800D8AE4FF003025FEADC0C18BF03325FEA6B
:104DF800DC0C18BF033202EBDC02C2F1200300FA1C
:104E080003FC20FA02F001FA03FE40EA0E0021FA40
:104E180002F11444BDE600BF70B54FF0FF0C4CF42E
:104E2800E06C1CEA11541DBF1CEA135594EA0C0FE0
:104E380095EA0C0F00F0DEF82C4481EA030621EA1B
:104E48004C5123EA4C5350EA013518BF52EA033556
:104E580041F4801143F4801338D0A0FB02CE4FF008
:104E68000005E1FB02E506F00042E0FB03E54FF038
:104E78000006E1FB03569CF0000F18BF4EF0010E30
:104E8800A4F1FF04B6F5007F64F5407404D25FEA2C
:104E98004E0E6D4146EB060642EAC62141EA5551DF
:104EA8004FEAC52040EA5E504FEACE2EB4F1FD0C21
:104EB80088BFBCF5E06F1ED8BEF1004F08BF5FEA9F
:104EC800500E50F1000041EB045170BD06F0004651
:104ED80046EA010140EA020081EA0301B4EB5C04FE
:104EE800C2BFD4EB0C0541EA045170BD41F48011F6
:104EF8004FF0000E013C00F3AB8014F1360FDEBF1B
:104F0800002001F0004170BDC4F10004203C35DAF6
:104F18000C341BDC04F11404C4F1200500FA05F379
:104F280020FA04F001FA05F240EA020001F000421A
:104F380021F0004110EBD37021FA04F642EB060190
:104F48005EEA430E08BF20EAD37070BDC4F10C04BA
:104F5800C4F1200500FA04F320FA05F001FA04F27E
:104F680040EA020001F0004110EBD37041F100016A
:104F78005EEA430E08BF20EAD37070BDC4F1200575
:104F880000FA05F24EEA020E20FA04F301FA05F2DD
:104F980043EA020321FA04F001F0004121FA04F285
:104FA80020EA020000EBD3705EEA430E08BF20EA55
:104FB800D37070BD94F0000F0FD101F0004640008F
:104FC80041EB010111F4801F08BF013CF7D041EA11
:104FD800060195F0000F18BF704703F00046520015
:104FE80043EB030313F4801F08BF013DF7D043EAE6
:104FF8000603704794EA0C0F0CEA135518BF95EA9C
:105008000C0F0CD050EA410618BF52EA4306D1D122
:1050180081EA030101F000414FF0000070BD50EA41
:10502800410606BF1046194652EA430619D094EACB
:105038000C0F02D150EA013613D195EA0C0F05D1B5
:1050480052EA03361CBF104619460AD181EA030109
:1050580001F0004141F0FE4141F470014FF00000C1
:1050680070BD41F0FE4141F4780170BD70B54FF05C
:10507800FF0C4CF4E06C1CEA11541DBF1CEA1355DC
:1050880094EA0C0F95EA0C0F00F0A7F8A4EB0504BE
:1050980081EA030E52EA03354FEA013100F08880B5
:1050A8004FEA03334FF0805545EA131343EA12637E
:1050B8004FEA022245EA111545EA10654FEA002633
:1050C8000EF000419D4208BF964244F1FD0404F5EC
:1050D800407402D25B084FEA3202B61A65EB030548
:1050E8005B084FEA32024FF480104FF4002CB6EB05
:1050F800020E75EB030E22BFB61A754640EA0C0085
:105108005B084FEA3202B6EB020E75EB030E22BFC4
:10511800B61A754640EA5C005B084FEA3202B6EB05
:10512800020E75EB030E22BFB61A754640EA9C00C4
:105138005B084FEA3202B6EB020E75EB030E22BF94
:10514800B61A754640EADC0055EA060E18D04FEA52
:10515800051545EA16754FEA06164FEAC30343EAF2
:1051680052734FEAC2025FEA1C1CC0D111F4801FBF
:105178000BD141EA00014FF000004FF0004CB6E7B8
:1051880011F4801F04BF01430020B4F1FD0C88BF57
:10519800BCF5E06F3FF6AFAEB5EB030C04BFB6EB62
:1051A800020C5FEA500C50F1000041EB045170BD55
:1051B8000EF0004E4EEA113114EB5C04C2BFD4EB82
:1051C8000C0541EA045170BD41F480114FF0000E06
:1051D800013C90E645EA060E8DE60CEA135594EA82
:1051E8000C0F08BF95EA0C0F3FF43BAF94EA0C0F85
:1051F8000AD150EA01347FF434AF95EA0C0F7FF4FA
:1052080025AF104619462CE795EA0C0F06D152EA4D
:1052180003353FF4FDAE1046194622E750EA410631
:1052280018BF52EA43067FF4C5AE50EA41047FF442
:105238000DAF52EA43057FF4EBAE12E74FF0FF3CA7
:1052480006E000BF4FF0010C02E000BF4FF0010C78
:105258004DF804CD4FEA410C7FEA6C5C4FEA430CF1
:1052680018BF7FEA6C5C1BD001B050EA410C0CBF40
:1052780052EA430C91EA030F02BF90EA020F0020A2
:10528800704710F1000F91EA030F58BF994208BF09
:1052980090422CBFD8176FEAE37040F001007047C6
:1052A8004FEA410C7FEA6C5C02D150EA013C07D11D
:1052B8004FEA430C7FEA6C5CD6D152EA033CD3D068
:1052C8005DF8040B704700BF8446104662468C4662
:1052D8001946634600E000BF01B5FFF7B7FF002895
:1052E80048BF10F1000F01BD4DF808EDFFF7F4FFBE
:1052F8000CBF012000205DF808FB00BF4DF808ED49
:10530800FFF7EAFF34BF012000205DF808FB00BF6B
:105318004DF808EDFFF7E0FF94BF012000205DF88D
:1053280008FB00BF4DF808EDFFF7CEFF94BF012042
:1053380000205DF808FB00BF4DF808EDFFF7C4FF3B
:1053480034BF012000205DF808FB00BF4FEA410C84
:105358007FEA6C5C02D150EA013C0AD14FEA430C67
:105368007FEA6C5C02D152EA033C02D14FF00000A4
:1053780070474FF0010070474FEA410212F50012E2
:1053880015D211D56FF47873B3EB625212D94FEA84
:10539800C12343F0004343EA505311F0004F23FA6E
:1053A80002F018BF404270474FF00000704750EAC3
:1053B800013005D111F0004008BF6FF00040704780
:1053C8004FF00000704700BF4A0011D212F50012DA
:1053D80011D20DD56FF47873B3EB62520ED44FEA45
:1053E800C12343F0004343EA505323FA02F07047C5
:1053F8004FF00000704750EA013002D14FF0FF3003
:1054080070474FF0000070474FEA4102B2F1E043A5
:1054180024BFB3F5001CDCF1FE5C0DD901F0004C93
:105428004FEAC0024CEA5070B2F1004F40EB8300E3
:1054380008BF20F00100704711F0804F21D113F10F
:105448003872BCBF01F00040704741F480114FEA48
:105458005252C2F11802C2F1200C10FA0CF320FAD1
:1054680002F018BF40F001004FEAC1234FEAD323EE
:1054780003FA0CFC40EA0C0023FA02F34FEA430358
:10548800CCE77FEA625307D150EA01331EBF4FF0E1
:10549800FE4040F44000704701F0004040F0FE40FC
:1054A80040F40000704700BF00000000000000004A
:1054B8000102030406070809B80B0000B80B000036
:1054C800C80000006400000064000000F40100004F
:1054D800B80B0000B80B0000140000002C010000FD
:1054E8003200000001000000000000000000000081
:1054F80000000000000000000000000000000000A4
:105508000000000000000000FFFFFFFFFFFFFFFF9B
:10551800FFFFFFFFFFFFFFFFFFFFFFFFFFFFFFFF93
:10552800FFFFFFFFFFFFFFFF00010203040506075F
:1055380008090A0B0C0D0E0F10111213141516176B
:1055480018191A1B1C1D1E1F20212223242526275B
:1055580028292A2B2C2D2E2F30313233343536374B
:1055680038393A3B3C3D3E3F00000101020203034B
:1055780010203040AA55AA55000001010202030379
:1055880010203040AA55AA55000001010202030369
:1055980010203040AA55AA55000001010202030359
:1055A80010203040AA55AA55000001010202030349
:1055B80010203040AA55AA55000001010202030339
:1055C80010203040AA55AA55000001010202030329
:1055D80010203040AA55AA55000001010202030319
:1055E80010203040AA55AA55000000000000000015
:1055F80000000000000000000000000000000000A3
:105608000000000000000000FFFFFFFFFFFFFFFF9A
:10561800FFFFFFFFFFFFFFFFFFFFFFFFFFFFFFFF92
:10562800FFFFFFFFFFFFFFFF00010203040506075E
:1056380008090A0B0C0D0E0F10111213141516176A
:1056480018191A1B1C1D1E1F20212223242526275A
:1056580028292A2B2C2D2E2F30313233343536374A
:1056680038393A3B3C3D3E3F00000101020203034A
:1056780010203040AA55AA55000001010202030378
:1056880010203040AA55AA55000001010202030368
:1056980010203040AA55AA55000001010202030358
:1056A80010203040AA55AA55000001010202030348
:1056B80010203040AA55AA55000001010202030338
:1056C80010203040AA55AA55000001010202030328
:1056D80010203040AA55AA55000001010202030318
:1056E80010203040AA55AA55000000000000000014
:1056F80000000000000000000000000000000000A2
:105708000000000000000000FFFFFFFFFFFFFFFF99
:10571800FFFFFFFFFFFFFFFFFFFFFFFFFFFFFFFF91
:10572800FFFFFFFFFFFFFFFF00010203040506075D
:1057380008090A0B0C0D0E0F101112131415161769
:1057480018191A1B1C1D1E1F202122232425262759
:1057580028292A2B2C2D2E2F303132333435363749
:1057680038393A3B3C3D3E3F000001010202030349
:1057780010203040AA55AA55000001010202030377
:1057880010203040AA55AA55000001010202030367
:1057980010203040AA55AA55000001010202030357
:1057A80010203040AA55AA55000001010202030347
:1057B80010203040AA55AA55000001010202030337
:1057C80010203040AA55AA55000001010202030327
:1057D80010203040AA55AA55000001010202030317
:1057E80010203040AA55AA55000000000000000013
:1057F80000000000000000000000000000000000A1
:105808000000000000000000FFFFFFFFFFFFFFFF98
:10581800FFFFFFFFFFFFFFFFFFFFFFFFFFFFFFFF90
:10582800FFFFFFFFFFFFFFFF00010203040506075C
:1058380008090A0B0C0D0E0F101112131415161768
:1058480018191A1B1C1D1E1F202122232425262758
:1058580028292A2B2C2D2E2F303132333435363748
:1058680038393A3B3C3D3E3F000001010202030348
:1058780010203040AA55AA55000001010202030376
:1058880010203040AA55AA55000001010202030366
:1058980010203040AA55AA55000001010202030356
:1058A80010203040AA55AA55000001010202030346
:1058B80010203040AA55AA55000001010202030336
:1058C80010203040AA55AA55000001010202030326
:1058D80010203040AA55AA55000001010202030316
:1058E80010203040AA55AA55000000000000000012
:1058F80000000000000000000000000000000000A0
:105908000000000000000000FFFFFFFFFFFFFFFF97
:10591800FFFFFFFFFFFFFFFFFFFFFFFFFFFFFFFF8F
:10592800FFFFFFFFFFFFFFFF00010203040506075B
:1059380008090A0B0C0D0E0F101112131415161767
:1059480018191A1B1C1D1E1F202122232425262757
:1059580028292A2B2C2D2E2F303132333435363747
:1059680038393A3B3C3D3E3F000001010202030347
:1059780010203040AA55AA55000001010202030375
:1059880010203040AA55AA55000001010202030365
:1059980010203040AA55AA55000001010202030355
:1059A80010203040AA55AA55000001010202030345
:1059B80010203040AA55AA55000001010202030335
:1059C80010203040AA55AA55000001010202030325
:1059D80010203040AA55AA55000001010202030315
:1059E80010203040AA55AA55000000000000000011
:1059F800000000000000000000000000000000009F
:105A08000000000000000000FFFFFFFFFFFFFFFF96
:105A1800FFFFFFFFFFFFFFFFFFFFFFFFFFFFFFFF8E
:105A2800FFFFFFFFFFFFFFFF00010203040506075A
:105A380008090A0B0C0D0E0F101112131415161766
:105A480018191A1B1C1D1E1F202122232425262756
:105A580028292A2B2C2D2E2F303132333435363746
:105A680038393A3B3C3D3E3F000001010202030346
:105A780010203040AA55AA55000001010202030374
:105A880010203040AA55AA55000001010202030364
:105A980010203040AA55AA55000001010202030354
:105AA80010203040AA55AA55000001010202030344
:105AB80010203040AA55AA55000001010202030334
:105AC80010203040AA55AA55000001010202030324
