:020000041000EA
:1000000000B5324B212058609868022188439860DF
:10001000D860186158612E4B002199600421596104
:100020000121F02299502B49196001219960352056
:1000300000F044F80222904214D00621196600F024
:1000400034F8196E01211966002018661A6600F04E
:100050002CF8196E196E196E052000F02FF8012189
:100060000842F9D1002199601B49196000215960AB
:100070001A491B48016001219960EB211966A021F2
:10008000196600F012F800219960164914480160C1
:100090000121996001BC002800D000471248134993
:1000A000086003C880F30888084703B5996A0420EC
:1000B0000142FBD001200142F8D103BD02B5186610
:1000C0001866FFF7F2FF186E186E02BD00000240BE
:1000D000000000180000070000035F00212200005C
:1000E000F4000018222000A00001001008ED00E03C
:1000F000000000000000000000000000070B8FD58A
:1001000000200420F7010010CB010010CD010010E9
:10011000C9010010C9010010C9010010C901001077
:10012000C9010010C9010010C9010010CF01001061
:10013000C9010010C9010010D1010010D301001045
:10014000C1010010C1010010C1010010C101001067
:10015000C1010010C1010010C1010010C101001057
:10016000C1010010C1010010C1010010C101001047
:10017000C1010010C1010010C1010010C101001037
:10018000C1010010C1010010C1010010C101001027
:10019000C1010010C1010010C1010010C101001017
:1001A000C1010010C1010010C1010010C101001007
:1001B000C1010010C1010010C1010010C1010010F7
:1001C000EFF30580103800BE00BE00BE00BE00BECA
:1001D00000BE00BEF2EB887148EB001068EB001027
:1001E0003802001090A31AE71E481F49086006C88D
:1001F00081F3088810471D480068002801D019487D
:10020000F3E70DA40ECC002902D000F012F8F9E7B4
:100210001749184A002000E001C19142FCD116495B
:100220008847164988471649884700BEFDE701C937
:1002300001C29A42FBD3704768EB0010C000002057
:10024000100C0020B8F6001000000420000004206C
:10025000B8F6001000100420001004200000000078
:10026000704700000000000008ED00E0000000D032
:10027000100C0020A4B80020F16B0010190600102B
:10028000E96B0010F8B5C046044B10B5002B03D045
:100290000349044800E000BF10BDC0460000000054
:1002A00010B50020BC95001000B5ADB002930192CE
:1002B00003000091084AA02104A806F057FC074B50
:1002C0001B78002B05D004A9054806F01DFE06F09A
:1002D000B3FD2DB000BDC046C095001072B5002022
:1002E000F0950010BFF35F8FD02304221B06002877
:1002F00003D05A61BFF35F8F70479A61FAE7C04637
:10030000204B10B51B78002B01D1002010BD05201B
:1003100003F07AFA1C4B9842F7D1D0231B061B68D6
:10032000002BF2D1062003F06FFA184B040098421C
:10033000EBD103F089FB0C28E7D1154B1B68DB04DC
:10034000E3D5C0235B055B69042BDED1114B124A58
:100350001B6813409342D8D1104B1B6E1B05D4D49D
:10036000053803F051FAA042CFD1092003F052FA28
:100370000B4BA022C318002052009A424041C0B249
:10038000C4E7C04671B5002000688909006CDC0232
:100390000040064000C000400100C0000080004056
:1003A000A08FFDFFF0B5DE4657464E464546E0B508
:1003B0000220DFB0D02402F0C7FA04232406A36190
:1003C0001920636202F0C0FA80239B04A3610C2011
:1003D000636203F02BFB052003F016FAFA21890073
:1003E00003F00AFD0338FDD203F02EFB00240C2895
:1003F00003D1664B1B68DB0407D420005FB03CBC14
:1004000090469946A246AB46F0BD61480EAB0DAA98
:100410000CA903F061FA041EEFD00D990E9A0C9806
:1004200003F01CFA5B4B5C4A08201A6003F0BCF92D
:100430001F21002002F056FA00220021002002F0C5
:100440006BFA1F21012002F04DFA00220021012049
:1004500002F062FA9F230D9300230E93EFF31084B2
:1004600072B604220EA90DA809F01EF884F31088B4
:100470003122322102AB9B1802AA52181B78127843
:100480001B0412021343013102AA52181278434E80
:100490001343336006F064FF041EAED003F0FAF895
:1004A00000253F4C24184D41002D57DBA8463D4FF9
:1004B00006F0CAFF002805D17B6A434555D3BA6AC6
:1004C000A24250D306F0C0FF00285AD10125364B76
:1004D0001D709A46354B1D70FFF712FF0700040090
:1004E000052003F091F98046062003F08DF90A906B
:1004F00003F0AAFA254B0B901B681B0B1D40C02371
:100500005B0599465B699B464B465869002830D18C
:10051000274B09970893D0231B061B68A02107933C
:10052000244B254A06933368490005935B460393A1
:100530000B9B049001930A9B029500930EA84346DF
:1005400006F014FB53461B78002B00D155E70EA98B
:100550001A4806F0D9FC06F06FFC4EE70124184B50
:1005600064429846A3E74345ACD10A2003F002F861
:100570009EE7052003F048F94B46596903F03CFC1F
:10058000C6E7322002F0F6FFA0E7C0460040064072
:100590000071020000E000400100C000E4340020CF
:1005A000404B4C000040054072B5002071B5002062
:1005B000DC960010E4960010F4950010F095001001
:1005C000FFFFFF7FF0B5C646844600B5104B5A6A60
:1005D000986A596A8A42FAD11700FA220023060063
:1005E00000216046920004F02DFF80468C46084BA7
:1005F0005A6A986A596A8A42FAD11100801BB94135
:100600008C45F5D801D18045F2D804BC9046F0BDA8
:100610000040054030BFFDE710B500F01DF830BFC9
:10062000FDE7C04670B50E0015000400074B1860CA
:10063000074B01201A60FFF755FE2B003200210006
:100640000448FFF731FEFFF7E5FF70BDE0B500207D
:100650007CB50020F0960010F8B5DE4657464E46B1
:100660004546E0B5FFF79EFE002800D18AE0002055
:10067000FFF738FE0023002200215448FFF714FE44
:10068000534B01259846534B9A46534B9946534B2F
:100690009B46FFF735FE002800D178E0042D6FD986
:1006A0004946082D00D8594680222800120101F041
:1006B0002DFD002800D170E0FFF722FE002800D1B8
:1006C00071E043461E6829000023320044486F1E33
:1006D000FFF7EAFD78427841FA2340421B011840B7
:1006E000FA239B009C466044FFF76CFF0120FFF754
:1006F000F9FD002E17D0002402E00134A64212D0EA
:10070000280001F0A1FD0028F7D1364BBF000522DB
:1007100021002800FC50FFF785FF3CBC904699461D
:10072000A246AB46F8BD0020FFF7DCFD2D4BBF0015
:10073000FE50FFF7E5FD00283BD0280001F08CFEBD
:1007400000283CD0280002F07DF8274B2900F85003
:10075000FB5832002548FFF7A7FD04239C460135CE
:10076000E0440D2D95D1FA20C000FFF72BFF0023A8
:10077000002200211E48FFF797FDFFF74BFFCCE753
:10078000514691E701220021FFF74CFFC5E7022205
:1007900000212800FFF746FFBFE7032200212800C1
:1007A000FFF740FFB9E7042200212800FFF73AFFD6
:1007B000B3E7072231002800FFF734FFADE7082236
:1007C00031002800FFF72EFFA7E7C046F89600107B
:1007D000189700104897001048A70010489F001075
:1007E00000970010B0B5002080B5002008970010D9
:1007F00010970010F0B5DE4657464E46454600239A
:10080000E0B585B0C25CCC5C6240C2540133102BB1
:10081000F8D19B469A468B44A03102918244030052
:10082000514603901A78564CA25C1A7001339942D3
:10083000F8D1427943784270427A8A464271427BCB
:1008400043734272827A83788270827B8372837967
:100850008271C27B8373C378C270C27A0400C27390
:10086000C279C3715B468346C27201932378607874
:100870009C46D9094B00C918CB00C9186346C20968
:100880005B0059405300D218D300D21843005A409D
:100890000300A678E77873409946F3095D005B1979
:1008A000DD005B1975006B40DBB20093FB099846D5
:1008B0005D00A8444346DD0045447B005D404B4657
:1008C000C9B27B40D2B24B405340237063465E4076
:1008D0007E407240009E5840724062704B466246B5
:1008E00047405340EDB2774059406F404D40A770AC
:1008F000E5700434A245B9D1019B58469B460023BC
:100900005C46C25CE15C4A40C2540133102BF8D112
:100910009C46A346029BE3445B4580D15146039B22
:100920001A78174CA25C1A7001339942F8D14279B7
:1009300043784270427A029C4271427B4373427216
:10094000827A83788270827B837283798271C27BA0
:100950008373C378C270C27AC273C279C371002331
:10096000C272E25CC15C4A40C2540133102BF8D120
:1009700005B03CBC90469946A246AB46F0BDC04689
:1009800074B00010F0B5C646802300B51E4F1B01A1
:10099000FE5A8046002E33D0012464423A002500DE
:1009A000002307E0601C01D0A94221D001330832A6
:1009B000B34208DA1168A942F4D21C0001330D00D9
:1009C0000832B342F6DBE4002300FB18013E19684D
:1009D0009A88F3003C19FB1821CB21C480231B010A
:1009E000FE524346404619609A8004BC9046F0BDD2
:1009F000E1007918908889888842D7D21C00D5E711
:100A000008235B421C00E0E7F0340020F0B5DE462E
:100A10004E46454657460023E0B580468C469146F3
:100A200000209B4683B0002928DD43460122591E41
:100A3000D21A01235B424B4461440193431C9C4501
:100A400031DD03000124434406E0FF2C0AD00134C9
:100A50000133E4B2994219D01E785D78D718380076
:100A6000AE42F2D04D465E46AC550224A246D34477
:100A70005D461B78019C6355BC45DFDC584603B0DE
:100A80003CBC90469946A246AB46F0BD59464A4604
:100A9000545442465B464946D25D0133CA54022350
:100AA0009C46E344EAE7594601234A46535401333E
:100AB0009C464346E34459461B5C013A5354DDE7E8
:100AC00070B50500081E0CD02B786E1E1370012324
:100AD000012906DDEC5CF15C641AD45401339842C0
:100AE000F8D170BDF0B54E46DE4657464546E0B5F6
:100AF00085B08146039200295ADD0023934698462B
:100B000000221F0002934B464046185C5B461A7059
:100B10005F70029B033301935B46987043465C1CF5
:100B2000A14235DDFE2C3EDD032346469C46FE3EBB
:100B3000E3444B46981900239C469A464B461D19A0
:100B4000002306E0C75CEA5C974205D10133FF2B26
:100B500002D01A198A42F5DB9A4502DAA21B9446A2
:100B60009A46731C0130464501D01E00E8E76346F3
:100B7000DAB253465444A046DFB28C4210DB0198EF
:100B800003990A5402988446421D614401920F71F0
:100B9000019805B03CBC90469946A246AB46F0BDD4
:100BA000019B0293AFE703239C460026E344C0E782
:100BB00000230193ECE7C046F0B5DE4657464E46AB
:100BC0004546E0B5AF4CA544029001910392002840
:100BD00000D1FDE08023019C1B019C4200D9F7E07D
:100BE000039D002D00D1F3E0842200212800520053
:100BF00004F01EFE2900230A4B700023251E0C70F2
:100C00008B70CB7000D1FDE000219F4A9F4804F01B
:100C10000FFE802246ACD2000021200004F008FE26
:100C200000220298835C01329B001959013119514D
:100C30009542F7DC802109018A469549802689463C
:100C4000924923008C46012188469249E1448C4612
:100C50008E4900228B460025DC4476001C68002C5F
:100C600010D08A4FD000BB46A9B25844046081809E
:100C70005046013292B23A52444648464455644680
:100C80006800215201350433B542E7D1012A00D86A
:100C900071E1A94606AB98467F4C804BE61804A844
:100CA000FFF770FE4046FFF76DFE4B4680205D1C4F
:100CB000ABB2764945468C46CA469946734B00010D
:100CC0001B5A2D68DA006244AC4604990133009146
:100CD00061441160514691806C4A9BB213529B460D
:100CE00004AB9B8880209C4643469D88694B290025
:100CF000D218654600238C46400005E0614509D0C6
:100D00000133023283420ED0E15C0029F8D0118811
:100D1000A942F3D151461180F15C02320131F15404
:100D200001338342F0D15B46012BB8D880200023E9
:100D3000002506A94000E25C002A01D04B55013590
:100D400001338342F7D1012D51D02CDD6B1E9A4621
:100D50000023984606AE7319C1461C00A84601231D
:100D60009C46731CE1449C46C84505DC17E095424F
:100D700038D001339C4212D0494D3178AB46434ABA
:100D8000187852185A441578404A12185A44127862
:100D90009542ECD93070197001339C42ECD1664613
:100DA000D145DCD1454606AB9846002D00D17BE00D
:100DB0004246454402E00132954226D03349137839
:100DC0008C46374963448C4663441B78202BF2D908
:100DD00001204042334B9D443CBC90469946A2467C
:100DE000AB46F0BD8142C4D930701970D4E7274AB0
:100DF00006AB944698462A4A1B786344944663445B
:100E00001D70D5E784204000E4E7254B1F4A039876
:100E1000D11880220830520004F010FD4346204AC9
:100E200018789446194B04AA1B1863440924944665
:100E30001B4E6444B44615491B780918614409786F
:100E400000228B421BD20133DBB252009942FAD10D
:100E500003000E4881338446FF33DB0063449A600D
:100E600019710132AC4228D00D4E2078B4460B00E7
:100E7000064901340918614409788B42E3D319000B
:100E8000E6E7C046E4FAFFFF04140000F034002057
:100E9000020B000002090000F23F002000FDFFFFEE
:100EA000020800001C050000344A354B0398D11895
:100EB00080220830520004F0C1FC002300221C00F4
:100EC000029901982D4D8B5CAC468133FF33DB00DA
:100ED00063441B790132E4189042F3DC0399230A3E
:100EE0000A004B71230C8B710932230ECB71FF3238
:100EF00084230C71A046140000225B00CA54002316
:100F0000994601339C4600230021002007269A467B
:100F10004A46029B9B5C1B4ADB009346174A5B4494
:100F200093465B441A785D68013A02D216E0013AB2
:100F300014D32B006746D3403B40771ABB40275C55
:100F400001313B4323540829F1D101300021C30072
:100F50004345ECD253462354013AEAD201239B463F
:100F6000019BD9444B45D3DCCB17591AC90F08183C
:100F70000930FF302EE7044CD8E6C046F03400209C
:100F800002080000040C0000F23F0020F0B5DE462D
:100F900057464E464546E0B5B5B08B4604A98C464B
:100FA00003900F20029201226044013B995C81541E
:100FB0000132112AFAD101239C4604AB013B019373
:100FC00005AB99460F2398464F4B10219A4664462D
:100FD0004E4F08AE04A80B228446012362445218E7
:100FE000D05C019DE8540133052BF9D143460B42F7
:100FF00050D004AB1B7804A884460A0062441578DC
:1010000001306B4013740132484507D003781578DE
:1010100001306B40137401324845F7D10431B029D7
:10102000D8D15B46002B6DDD013B1A0000930F23E6
:101030009A435B46103B9B1A9846039B5D465B4474
:1010400099461023029F9A460CE0310004A8FFF74E
:10105000D1FB103D3800102204A904F0EFFB10373B
:10106000A8452FD02C00102D00DD10244B46220067
:10107000591B04A804F0E2FB0F2DE6DC534604A93B
:1010800022008C461B1BDBB2624413700132964275
:10109000FBD1DAE704ABD8781A785B7804ADFB5C57
:1010A000BA5C0093AD78385C7D5DAC46634604ADB8
:1010B0006B705346EA701A5D009BA87053402B700A
:1010C000013498E7009B1C09013424015B461B078F
:1010D00010D1102204AB1A7001339E42FBD13100B3
:1010E00004A8FFF787FB029B1022181904A904F03B
:1010F000A5FB1034200035B03CBC90469946A24672
:10110000AB46F0BD0024E1E768B0001074B00010F9
:10111000F0B55746DE464E464546E0B5CFB00EAF79
:10112000079038001EAC0B784A781B061204134354
:10113000CA7813438A7804311202134308C08442E8
:10114000F1D1C02398463A00AF3B9C460A3BB844D5
:101150009B460B33474613269A469046936B64464C
:101160001800E0411C00F441604014689B0AA1464D
:101170005840536A51684B445C46C0180B005546B2
:10118000E3410C00EC41C90863404B40C3181364B1
:1011900004329742E2D14746079B0197DA685969C2
:1011A00005929A691C680692434A5E6893467A1CC7
:1011B000FF320492069A9D689446059A1869039234
:1011C000DB693E4A9A469146089409960A950B9027
:1011D0000C910D9302910CE05F4608CFE2469946D0
:1011E000029B039502903500BB4626009C461000EA
:1011F0000C000B2102000627CA410100F9415140B1
:1012000002001337FA415140029A162302409046D9
:101210006246474682437A40019F891804CF01976E
:1012200089180D272200FA41514449449146220071
:101230000B3FFA414F467A402700DF417A403700A2
:101240006F402740B9462F003740BA464F465346B5
:101250005F40B946039B9144019FCA18049B4944CF
:10126000BB42B9D1029B9846089B9946079B4944CB
:101270001960099989460A994C44894605994E4452
:1012800089460B994D4489464A441A610C9A5C6020
:1012900091461A0048449E60DD605861069B4344B5
:1012A00093610D9B6344D3614FB03CBC904699461B
:1012B000A246AB46F0BDC0466CAF0010982F8A42E4
:1012C000F0B546464F46D646C0B598B06E469046F5
:1012D0003200414B81460C0023CB23C223CB23C2D7
:1012E00003CB03C23F2C00DC74E040235B429A46F0
:1012F000A24457467F339F434B464D464033DF1948
:10130000290030004035FFF703FFAF42F8D15346C4
:101310009809013080018144251A08AF2A00494606
:10132000380004F08BFA8023681C7B5538284ADD8E
:1013300040220021121A381804F07AFA39003000DD
:10134000FFF7E6FE38220021380004F071FA5F2230
:101350002020E517630FED001D4381460023E100C7
:101360006A4407E02C00C440200008331070013AA2
:10137000402B0FD0202040421818F3D548462C00AF
:10138000C01A84400800D840083320431070013A46
:10139000402BEFD1390030004446FFF7B9FE4246FA
:1013A000203408CE190E1170190C5170190A917061
:1013B000D37004329442F4D1202018B01CBC904663
:1013C0009946A246F0BD38220021121A381804F0BE
:1013D0002FFABCE72500A0E748AF001030B50D6834
:1013E0001C00AC4603686344036025686B4010250D
:1013F000EB4123601568AC46634413600D686B4095
:101400001425EB410B600568AC466344036020681B
:1014100043401820C341236010688446634413602E
:101420000A6853401922D3410B6030BDF0B591B02A
:101430000E000A006D466B46070010A802CA02C3E0
:101440008342FBD10A2468460CAB08AA04A9FFF723
:10145000C5FF0DAB09AA05A901A8FFF7BFFF0EAB99
:101460000AAA06A902A8FFF7B9FF0FAB0BAA07A9A2
:1014700003A8FFF7B3FF68460FAB0AAA05A9FFF759
:10148000ADFF0CAB0BAA06A901A8FFF7A7FF0DAB98
:1014900008AA07A902A8FFF7A1FF013C0EAB09AA01
:1014A00004A903A8FFF79AFF002CCCD1325908CD2C
:1014B000944663443B510434402CF7D111B0F0BD45
:1014C000F0B557464E464546DE46E0B5884660498B
:1014D000A3B002915F49814603915F495878049116
:1014E0005E490002059119789246084399782C9A32
:1014F00009040843D97809060143587906911979F6
:1015000000020843997909040843D979090601437F
:10151000587A0791197A00020843997A0904084316
:10152000D97A09060143587B0891197B00020843C8
:10153000997B09040843D97B09060143587C09912A
:10154000197C00020843997C09040843D97C0906E8
:1015500001430A91197D587D00020843997D0904D1
:101560000843D97D09060143587E0B91197E00027C
:101570000843997E09040843D97E090601430C916A
:10158000597F187F09020843997FDB7F09040143D3
:101590001B060B430D93012351780E931378090218
:1015A000194393781B041943D3781B060B435179D5
:1015B0000F9313790902194393791B041943D379C3
:1015C0001B060B43517A1093137A09021943937A3D
:1015D0001B041943D37A1B060B4311934346002B7C
:1015E00032DD00230326009312AD280002A9FFF785
:1015F0001DFF4346009A9A1A402A00DD40220099B6
:10160000002308004944504437009C10A4001F40A8
:101610002C59FF00FC40CF5C7C40C45401339A42FB
:10162000F2D1009B9C46944462460E9B009201932B
:1016300001330E93E045D8DC009823B03CBC9046C3
:101640009946A246AB46F0BD00230093F4E7C0469E
:10165000657870616E642033322D62797465206B19
:1016600070B500291BDD01230400461801200D4D33
:101670005B4221784B40082104E05B0801396B4054
:10168000002905D01842F8D101395B080029F9D1A9
:101690000134B442EDD1DB430020136070BD002360
:1016A000FAE7C0462083B8EDF0B557464E46DE4611
:1016B0004546E0B599B0824689461792002800D188
:1016C000A5E1002A00D1A2E10B008022013B12011A
:1016D000934200D39BE10A001A401692194200D0AF
:1016E00095E10B000026012903D001365B10012B88
:1016F000FBD100220023771E93465246B8460125AF
:1017000037001E000092002F00D17CE1002300244E
:1017100041462A009A40164203D02800CA1A904037
:10172000044301339F42F4D1BB4B88469A46BB4BDE
:10173000A4009C46A2446444009B985D03F0F9FE1B
:10174000534618605B4601362360B145DBD11296E3
:10175000002F00D10FE17B1C15930023B04CB14E3C
:1017600008930994B04B0C93012314938020012318
:1017700014990006844632008B4062440B921A0092
:101780009446042210938A40DB0F63445B100D9350
:101790009B009A46002313929F4A11930F929F4AEF
:1017A0000E92109B012B00DCB6E00E9B00249946A4
:1017B0000F9B984600239B4600230093019400232F
:1017C0009A4C0293039443465246985803F0DEFE27
:1017D0004B465246040098580D0003F0D7FE029A7B
:1017E000039B06000F00200029000694079502F0D5
:1017F0007AFD009A019B04000D003000390002F0D0
:1018000072FD02000B002000290002F03CFD029A4C
:10181000039B049005913000390002F064FD009AAA
:10182000019B04000D000698079902F05CFD020080
:101830000B002000290002F02FFD4346069007917F
:10184000186803F0A3FE4B46040018680D0003F06F
:101850009DFE220006000F00049805992B0002F05F
:101860001BFD02F003FE4346320018603B00069861
:10187000079902F011FD02F0F9FD4B4629001860AE
:10188000049A059B200002F0FEFC02F0EFFD4346A7
:1018900051465850069A079B3000390002F0F3FC7D
:1018A00002F0E4FD4B4652469850029E039F089A70
:1018B000099B3000390002F016FD009A019B0400DC
:1018C0000D000C980B9902F00EFD02000B00200099
:1018D000290002F0D8FC089A099B02900391009815
:1018E000019902F000FD04000D0032003B000C984D
:1018F0000B9902F0F8FC2B00220002F0CDFC012332
:101900009C460333E3449C460D9B00900191E044C8
:10191000E1449B4500DA56E7109A0F999446119BD3
:10192000139A0800634494460E99129A60446144E5
:1019300011930F900E91934200DA32E7149B1599A0
:10194000013314938B4216D00120984002F03AFDE7
:1019500002000B003648374902F0A7FC04000D00D6
:1019600002F0BCFD0C900E002000290002F0A0FD4A
:1019700008900991FAE6284B9846284B9946179B00
:101980009A46129B9B0043449B46434601CB984694
:1019900003F0FCFD4B46040001CB0D00994603F01B
:1019A000F5FD220006000F002B002000290002F0A8
:1019B0009AFC320004000D003B003000390002F0B8
:1019C00092FC02000B002000290002F065FC02F0EE
:1019D00059FD040012980D0002F0F4FC0B00020007
:1019E0002900200002F061FC02F040FD534601C3D3
:1019F0009A46D845C9D1169819B03CBC904699462C
:101A0000A246AB46F0BD044B044C9A4694E6012333
:101A10005B421693EFE7C046F4680020F4480020CC
:101A20000000F0BF26A6A13C075C14330000F03F85
:101A3000182D4454FB211940F8B55746DE464E4652
:101A400045468A46E0B59346071E99463ED0002A91
:101A50003CD04B46002B39D000292BDD0A9B4E464B
:101A60005C42002398460A9B4B441D000A9A434659
:101A70000020002A26DD002B04DB5A42B15CFA5C10
:101A80004A438018013BA342F5D14B4600211A7806
:101A900001338918AB42FAD1002912D002F0ACF917
:101AA0005B464246985401239C46E044013401368B
:101AB000C245DBD100203CBC90469946A246AB46CD
:101AC000F8BDC0B25B4642469854ECE70120404264
:101AD000F1E7C046F0B54546DE4657464E46E0B50E
:101AE0008BB01D00039007910292002800D1E0E026
:101AF000002A00D1DDE0002D00D1DAE0159B002B9B
:101B000000D1D6E0149B002B00DCCDE05E19002252
:101B100000232F00A84614001D00387802F052FC64
:101B200002000B002000290002F0B6FB0137040080
:101B30000D00B742F1D1089409954546079B002B4B
:101B400000DC91E0169B01955B429A46159B9B46F3
:101B5000149B5B42994600230693149B002B00DCE8
:101B600091E00022002316001F004D46069C002C29
:101B70000FDB019A6342D35C039A105D584302F075
:101B800021FC02000B003000390002F085FB06004A
:101B90000F00013CAC42EAD1169BA946049605977A
:101BA000012B00DC77E0069B0026013B98460027CE
:101BB0004346002B19DB5A465B42D05C02F0FEFB29
:101BC0004246029B0400985C0D0002F0FBFB020001
:101BD0000B002000290002F086FB02000B00300001
:101BE000390002F059FB06000F0001235B429C46BE
:101BF000E044D045DCD1089C099D00220023200050
:101C0000290002F0C9FB049A059B002834D030005B
:101C1000390002F041FB22002B0002F046FB0400D9
:101C20000D00254B00222000290002F0B5FBFF2308
:101C3000002808D1002300222000290002F096FB92
:101C4000002300282AD0069A02998B54531C0122A3
:101C50009446019A069301320192079AE244E344C2
:101C6000E1449A4200D078E700200BB03CBC90469B
:101C70009946A246AB46F0BD3000390002F00CFB9D
:101C800004000D00CDE70023002404930594169B67
:101C9000012B00DD87E700260027ACE720002900A4
:101CA00002F0CCFBC3B2CEE70023002408930994D2
:101CB00044E701204042D8E700E06F40F0B54E46CF
:101CC0004546DE465746E0B587B005000E00019058
:101CD00002910392002869D0002A67D0002965DDAF
:101CE000080003F02BFC011C041C03F0CBFB03F0E9
:101CF0004DFC02000B002F482F4902F0D6FA02F0EB
:101D0000B5FB8146FE20211C800503F0BEFB03F0DD
:101D100047FC05908020211CC00503F0B6FB03F0B2
:101D20003FFCB446B200934665440022AA460490A4
:101D30000092009F00247B0098465E46019D38007B
:101D4000310002F059F8080003F0F3FB494603F0B4
:101D5000B0FB03F035FC8346287803F0EAFB5946D4
:101D600003F0A7FB011C201C03F08CFB0135041CB5
:101D70004744AA45E3D1009BB346002B14D00498F6
:101D8000211C03F096FB009E039BB500029A58515C
:101D9000731C00939A42CCD1002007B03CBC904603
:101DA0009946A246AB46F0BD0598E9E701204042BE
:101DB000F3E7C046182D4454FB210940F0B55746BF
:101DC000DE464E464546924BE0B51B68914C9A461E
:101DD0008423A5445B009A4506D38F4B1B689B4622
:101DE0008E4B5B689B4509D00020B1239B009D442E
:101DF0003CBC90469946A246AB46F0BD874B9A68DC
:101E0000D31DDB080933FF3301929A45ECD15B46C1
:101E10005B019342E8D30DAC84220021200003F043
:101E200007FD842200212EA803F002FD8422002158
:101E30004FA803F0FDFC7948784A0D3000210C32A0
:101E4000FF3009E0002B04D09B00E558013101353B
:101E5000E5500132824203D01378202BF2D9C3E738
:101E60005B46002B62D00029BED000230022994699
:101E70009C460023002580200292039353460127AD
:101E8000674940000B930A9563460493002305932A
:101E9000049D059E029A039B521973414D46921868
:101EA0005B41089209930292039363195D680023D2
:101EB00006950793AC46029A039B069D079EAD18B4
:101EC0005E412A003D003300203DA84626D4464608
:101ED0000125B540A8460125BD40434500D983E70B
:101EE0002AD0089A2EAB4B445A600A9D4FAB4B4404
:101EF0005D600023CA5CBA4205D1C8260CAA7600F0
:101F000092195355013501338342F3D101370A95B4
:101F1000212F14D004239846C144B5E72025ED1B9A
:101F2000A84601254646F540A846D4E7019B19433B
:101F300048424841C0B258E7AA42D2D954E70B9B65
:101F40009A46019B002B00D14EE786230020334A9E
:101F50005B00D35C02900130012100228146DB113D
:101F600011E02E4DD008AC46072560440D30FF30FF
:101F70000078954328414D465B00284001310343DA
:101F8000212900D130E788002558002D23D088274B
:101F90000CAEF6193658B4469E421CD89E1BB5426C
:101FA00019D902990D008B4500D81DE70CAE843776
:101FB000F6193058C8261B18604676001B1A0CA864
:101FC0008019C05C174B01315B5D984200D00BE774
:101FD000029100230021019801328242C1D10720E1
:101FE0000400144010420AD0082301221B1B524255
:101FF0009A400A4B5344DB78934300D0F4E6029BAB
:1020000000209B4500D0F0E648424841EDE6C0463E
:1020100030B500203CFDFFFF00B500207413002008
:102020008013002000AD0020F0B557464546DE463F
:102030004E462F4BE0B51F682E4B80461B68002094
:1020400083B0BB4242D1002F38D08023DB00002474
:102050009946294D294E16E0B378002C43D0687874
:10206000C31870784000C318012C3CD030782A780F
:102070008018C018FF23484537D30134AB700136B0
:102080000135A7421AD04346002BE5D1002001902C
:10209000B01C8446E0430122824619496046C05C78
:1020A00042430198834693445A4601921A1D14D024
:1020B000013B0431534510D00A68EFE73A0011495B
:1020C000114807F09BF943425841C0B203B03CBCF1
:1020D00090469946A246AB46F0BD0921019801F011
:1020E0008BFEC3B2C9E79B08C7E78008C3B2C4E749
:1020F00000B5002030B50020BA2C0020FEAC002036
:10210000D8E4001078130020BC2C0020F0B5002388
:10211000C64617003E4A00B513703E4A3E4E136055
:102120003E4A33601360431E040090460B2B23D8B5
:1021300080231B019F421FD8002917D009285DD09A
:102140000C281DD0002F1DD1354B364A364913605F
:102150005350364A3649136053500022354B1A709B
:102160000023354A01201370346006E0002F03D1AC
:10217000092801D00C28E7D1002004BC9046F0BD0E
:10218000002FF9D02D4D3A00280003F057FB4346AD
:10219000244A25491F60224B535013602449234A87
:1021A0005350136080231B019F42D6D12900244A3B
:1021B000EF1802E00131B94226D0530353405A0CC4
:1021C00053405A015A400878D3B29842F2D00022C4
:1021D0008020184B80211A701A4A002394467F27CA
:1021E000000106E00133834210D03A0061461A40F4
:1021F000895CEA5C8A42F5D00023B2E7002FBBD0AD
:102200007B1E1F42BED0B7E70122E1E70123A8E70A
:1022100077B5002030B500207012002000B50020F6
:10222000216DA783F888002004200000741300208B
:102230000C19000073B5002074B5002000AD00201B
:102240004D3C2B1A38E20010F0B5CE46474600232D
:1022500080B56D4A6D4D1268040089B02B708242C2
:1022600006D1002804D06A4E6A4932688A4205D0F5
:10227000002009B00CBC90469946F0BD66497158E3
:102280009142F5D1654A904612688A42F0D14046A3
:10229000634941589142EBD1624F3B600C2CE7D827
:1022A000614AA300D3589F46604B614A1968614850
:1022B0009946FFF703FD0028DAD14B4618688000E5
:1022C0000028D5DB534A33689342D1D1524AB258E1
:1022D0009A42CDD143461B689342C9D14146504AE8
:1022E0008A589A42C4D13860092C04D00C2C02D0F0
:1022F000514B9842BCDC012301202B70B9E76946A1
:102300004E4B4C481A888A829B784D4A8B751188AF
:1023100006AB198092789A70444A01939146032241
:102320004946029200920968464A05ABFFF7D2FB84
:1023300000289DD14B461868C2E7434A06AB116896
:102340003C48069112791A71384A9146052249464D
:10235000009209683B4AFFF76FFB0028EAD087E745
:10236000324B334A196833489946FFF79DF90028E4
:10237000A3D07DE7002306932C4B2E48196806AAAC
:10238000FFF76EF9002800D072E7069B0420736007
:1023900098E7264B2B4A19682C4B264800932C4B68
:1023A000FFF78EF88CE7214B264A19682148FEF783
:1023B00087FF85E71D4B234A19681E48254BFEF70A
:1023C000E5FD7DE7194B1F4A19681A48FEF7F4FB33
:1023D00076E73200154B1748196808327160FEF72E
:1023E00081FB002800DA43E704306BE70F4B154A06
:1023F00019681048FEF764FB62E70C4B114A196834
:102400000C48FEF703FB5BE77012002077B5002055
:1024100074130020216DA7830C190000F888002098
:102420000420000030B5002084B1001000B5002069
:10243000FC88002000AD00200819000074B10010D5
:1024400078B10010781300207CB100101CB200108D
:10245000FCB10010ECB10010F0B5DE4657464E4618
:102460004546E0B5CA4B04001B6883B0834208D1DF
:10247000C84B1D78002D04D0C74EC84A336893421C
:1024800008D00025280003B03CBC90469946A246DF
:10249000AB46F0BDC24AB2589A42F2D1C1490B686C
:1024A0009342EED1C04A8A589A42EAD10C28E8D821
:1024B000BE4A8300D3589F460120FFF7B5FD0500B3
:1024C000E0E70020FFF7B0FD0500DBE7B84B1D7823
:1024D000002DD6D0B74B1968B74B8A001B689A42BB
:1024E000CFD10029CED0B54A002792468B46A146CF
:1024F000019533E00F233B4200D042E1B04A3B0953
:102500009B009B58AF4958004008984602F0D1FF05
:10251000AD4902F0B7FF061C53461C6865006D0804
:10252000AA49281C02F0F9FF0028AAD1A749281CB3
:1025300002F0EEFF0028A4D14146201C02F09FFFCC
:1025400040004008311C02F0E3FF002899D1042329
:102550009C460137E244BB4500D116E14B460C2BAB
:10256000C8D19B4ABB00D3589649984653461C682D
:1025700043465800400802F09CFF964902F082FF53
:10258000061CCBE7944B1D78002D00D17AE78A4BCF
:1025900000251B68042B00D074E7904B75689C469F
:1025A00065446B425D41EDB26CE78B4B1D78002DAD
:1025B00000D167E7804B00251B68202B00D061E726
:1025C00020228749874806F019FF45426841C5B275
:1025D00058E7814B1D78002D00D153E78123764ABF
:1025E000002512681B019A4200D04BE77E497D48C6
:1025F00006F004FF45426841C5B243E7FFF7DEFB42
:1026000005003FE76C4B1B680193032B00D838E7AC
:10261000684B1B6898467368434500D031E7042334
:102620009C46E1464A46714B00279A46704B4D4600
:102630009B46019B9B1A5B085B004B449C46B8453C
:1026400000D8DFE0654500D11BE75346AC1C195D9F
:10265000002975D1019BA946A34200D811E70323A5
:102660009C4634192379624AE144D3554A46019B7A
:102670004D469B1A5B085B004B449C460137DEE7E6
:102680004C4B18684C4B1B68834200D0F9E600287D
:1026900000D1F7E600210023524E564C03E00131F1
:1026A000884200D1EEE6725C9B18625CDBB29A4213
:1026B000F5D0E6E6404B1B689C4601236146624626
:1026C0001940134200D0DCE6002A00D1A9E0394BC2
:1026D000444F99461B68484D984604235B429E1B15
:1026E0003878002800D1CCE643465B1A984200D9DE
:1026F000C7E60B007C780133EA5CA24200D0C0E65A
:10270000CA1A1218002AF6D10237F219944500D8D5
:102710008AE01900E4E7304B1D78002D00D1B1E6C6
:102720008023254A002512681B019A4200D0A9E6A1
:1027300032492C4806F062FE45426841C5B2A1E626
:102740002F4B185D002800D19BE6B84200D998E6CF
:102750004346DB1B994200D993E6B946D9444A4621
:102760000023A1461400381A5844C25CE2540133D5
:102770009942FAD87F184C46B84500D96AE74D46C9
:102780005DE70023104E9846C6E6019D7AE6C046F6
:102790007012002077B5002074130020216DA783EC
:1027A0000C190000F888002004200000B8B10010C7
:1027B00074B5002000B5002030B50020FC88002052
:1027C000B8E20010ACC5A73717B7D138FFFF7F7F3D
:1027D00038C200100AD7233C73B50020CD65C16212
:1027E000B8E400107813002028B2001077130020FE
:1027F000BC2C002000AD0020FFAC002038BA001037
:1028000076130020AC46019B0025634500D039E6D5
:1028100042460949094806F0F1FD45426841C5B202
:1028200030E6074A002391464A461568ED1A6B4286
:102830005D41EDB226E6C04600AD0020BC2C002074
:1028400000B500201E4B70B51A680023824208D1E3
:102850001C490978002904D01B491C4C0868A04277
:1028600001D0180070BD1A4C0C598442F9D1194D91
:102870002868A042F5D1184C2C598442F1D1092A7C
:102880001CD00C2A1AD00D1D144B1B68002BE8D04D
:10289000E81801230124124E5B422A785340082293
:1028A000210019405B08002900D07340013A002A3A
:1028B000F6D10135A842F0D1DB43D2E70435E3E796
:1028C0007012002077B5002074130020216DA783BB
:1028D0000C190000F88800200420000030B500200A
:1028E0002083B8ED10B54024084A83009A18126876
:1028F000C0005440C0222240054CA44663441A60E4
:10290000044B9C466044416010BDC04604C0014079
:1029100004D00140004001400A4B80009C464B1E01
:1029200099416044C900002A01D004231943036877
:102930004B400C21194080235B019C4660440160A0
:102940007047C04604C001400123D022834040218B
:10295000120693629361094A83009A181268C000B4
:102960005140C0220A4006498C4663441A60054B18
:102970009C460523604443607047C04604C0014044
:1029800004D00140004001408023DB051868000F9F
:102990007047C0460FB400B5084883B004F06AFA27
:1029A000049B002B07D005A91800019104F002F93F
:1029B000034804F05FFA012004F014F9ECE400107D
:1029C000D8960010F8B5EFF3108772B60E4E336844
:1029D000002BFCD0BFF35F8FCB08C4180725A4469B
:1029E000C45C01230D40AB4018002040234208D1B5
:1029F000624623431370BFF35F8F306087F3108804
:102A0000F8BD1000FFF7C6FF2C0100D0F8B5CE4688
:102A100047468C4680B5EFF3108872B6214D2C687E
:102A2000002CFCD0BFF35F8F9A422CD8D40807212A
:102A3000055D0619012411408C402C421FD007214E
:102A40008946063909E0D408055D06194C460F0091
:102A50001440A7403C002F4211D001329342F2D2E1
:102A600001204042BFF35F8F00220E4B1A6088F3B3
:102A7000108800280FDB0CBC90469946F8BD2C430B
:102A800010003470EEE7BFF35F8F00232B6088F3F4
:102A90001088012040426346002BECD00898FFF7D5
:102AA00079FFC0462C0100D0044A1078431CDBB2E9
:102AB000172B00D9102313707047C046400B00201D
:102AC00000B5054B83B00100009318221F23034873
:102AD000FFF79CFF03B000BDFCE400108C2C00202D
:102AE0000021044B044ABFF35F8F02C39342FAD123
:102AF0007047C046000100D0800100D0054B064A57
:102B00001360064A136053609360D360136153618E
:102B1000936170478080808000E400E004E400E07E
:102B20001F2318401E3B8340002905D0C021044AC2
:102B30004900535013607047802201498B50FAE7D7
:102B400000E100E001228240034B1B681340581E45
:102B50008341D8B27047C04600E100E001238340C2
:102B6000014A13607047C04600E200E0064B103097
:102B70009B688000C358054A00209B1A2F229A4266
:102B80004041C0B27047C04600ED00E0440B002059
:102B900070B50D00EFF3108672B60F4A1368002B64
:102BA000FCD0BFF35F8F0D4B10309B6884001B5926
:102BB0000B4A934203D09D4201D001F001F8074B2C
:102BC0009B681D51BFF35F8FBFF35F8F0022024BE5
:102BD0001A6086F3108870BD240100D000ED00E07B
:102BE000C1010010F0B557464E464546DE46E0B5F9
:102BF000894683B005001700EFF3108A72B65E4A6B
:102C00001368002BFCD0BFF35F8F00205B4B18567E
:102C10009B46002800DA6CE05A464400584E2418BF
:102C2000A400331998469B7910351370554BAA00B0
:102C30009B6801929B589C469B1B2F2B28D80122F6
:102C400061469143CB79BB4208D86AE053009B1898
:102C50009B00F318DD79BD4251D9190006228A562E
:102C6000002AF3DA0B1D9B46474E43465C46043B65
:102C70001B1B1B05454C5B0D23438B808871414614
:102C80008A714A46424B8E800B60CF718A601BE08E
:102C9000404B9C4542D142463F4B023413803F4B50
:102CA0003619043B9E1B3605384B760D1E433C4BB4
:102CB00056809380FF23D771937143464A469A60AA
:102CC000012342461A43944661462E4B019A9B6863
:102CD0009950BFF35F8FBFF35F8F0022264B1A60BE
:102CE0008AF3108803B03CBC90469946A246AB4696
:102CF000F0BD00F065FF5B46002018568CE70B1D09
:102D00009B468B8804345B051B155B4436199E1B60
:102D1000E0233605760D1B021E43A6E700F050FFA8
:102D2000B9E745460B001F489B1B5B415843000D0C
:102D3000194B2B80A31C9C46B4446546174B0434A6
:102D4000043B5B1B1B05114D5B0DAC462B434546FD
:102D500036196B800B1F9E1B6346A87148463605CB
:102D6000760D1E430A4BAE80EF71A8600B604346A0
:102D700013439C46A8E7C046240100D075B5002047
:102D8000440B002000ED00E001BD000000E0FFFF6B
:102D900001488047C101001000A1FFFF740B002013
:102DA00001BDFFFFAAAA00000123F0B50343EFF322
:102DB0000584EFF3108672B61C490A68002AFCD01D
:102DC000BFF35F8F1A4F01001A4D1B4A491B49413F
:102DD0004A43120D51B2BA689446A2006446A45800
:102DE0009C4215D02A000023062414578C4213D08D
:102DF00001330C32042BF7D1104B1A781970827101
:102E0000BFF35F8F0022094B1A6086F31088F0BD74
:102E1000BB680B4C9C50EFE75A00D3189B00ED1891
:102E2000FF23AB71074BAB80E6E7C046240100D01F
:102E300000ED00E0440B0020AAAA000075B50020B8
:102E4000C101001001BDFFFF00B5074B83B00100B9
:102E50000093002205230548FFF7D8FD002801DB79
:102E60001F23181A03B000BD18E500107AB5002022
:102E7000024B9C4661448900016070474000003469
:102E800010B50400FFF710FE01002000FFF7F0FF6F
:102E9000FF232371BFF35F8F10BDC04610B5040040
:102EA000FFF702FE01002000FFF7E2FFFF23A380EF
:102EB000BFF35F8F10BDC04670B5094C094DAC42E1
:102EC00008D223682000002B05D00834FFF7E6FF66
:102ED000AC42F6D370BDFFF7D3FF0834EFE7C0462E
:102EE000080C0020100C002010B504000120FFF792
:102EF000E7FD034BC3189B002360BFF35F8F10BD3A
:102F000040000034034B9C46614489000160BFF3DC
:102F10005F8F7047400000340A4B1968EFF3108050
:102F200072B60A68002AFCD0BFF35F8F1B68BFF33C
:102F30005F8F00221A6080F3108840BF00200021BC
:102F40007047C04650B50020F0B5DE4657464E46A5
:102F50004546E0B585B0EFF30582032313409A00A0
:102F600011000392B64A5258904601229A40914667
:102F7000B44B1A604B46B4484363434608229B5EF9
:102F80009A46002B3EDA43469B881BB2002B00DB9F
:102F9000A2E043469B79002B00D0F4E0434608248E
:102FA0001C5F002C24DB42465269630094461B19C7
:102FB000DB0063449C68DD68631C00D110E1A2481B
:102FC000039B84466344826A19001B69A61A9B1AF4
:102FD0009E4215D34A46036A1A4211D09A4800F01D
:102FE00051FB241A8D41002D02DCC3D1002CC1D02D
:102FF00040BF05B03CBC90469946A246AB46F0BDEA
:103000000C61EBE7424652695B0093465344DB0098
:103010009B445B469E68DF6800F034FB801BB9412F
:103020000029B0DB002F00DAE5E05B46874A1B6928
:10303000934200D1D8E041465A460820085E5288A3
:10304000000410435A465169984704000D002300BC
:103050002B4300D1CFE0002D00DBE8E0361BAF4171
:1030600034003D005B469C60DD600021595E002914
:1030700000DA88E743465B6922009C462B00480043
:103080004018C00060448668C768921BBB41002B93
:1030900000DA78E7434666460200009401951981FC
:1030A0000CE07B00DB19DB00F318009801999C68A9
:1030B000DD68001BA941002904DB1A000023D75E4C
:1030C000002FEEDA5B461F805346138043469B88F1
:1030D0001BB2002B00DA5CE743461A69EFF310815C
:1030E00072B61368002BFCD0BFF35F8F43469B88FA
:1030F00042461BB29A4601235B4293801369BFF399
:103100005F8F00221A6081F310885346002B00DA8B
:103110003FE743465B699C46082343449B4653462E
:103120005F0043465744FF0008229A5E67445E46AC
:10313000BC68FD68002A19DB3B00009401956746D6
:103140009C4604E01E000023F25E002A0BDB009880
:10315000019953009B18DB00FB189C68DD68001B7D
:10316000A9410029EEDA6346BC461F00534633806E
:1031700000217B5E3A809A46002BD0DA43469B7949
:10318000002B00D10AE7002342469371434646468E
:103190000821595E08364B1C00D129E747468C466A
:1031A000556902E006004B1C17D04B005B18DB0092
:1031B000E8180A00E95E43881BB2002BF2DA01230B
:1031C0005B42DC178360C4609445ECD031803B895E
:1031D000944603803A814B1CE7D1B8466446E0E64A
:1031E0006B1C00D0EBE6F9E65B465C6920002369C6
:1031F0009847002821D15B4642461B8813811269FB
:10320000EFF3108372B611680029FCD0BFF35F8F13
:103210004246594652880A804246514651801269B8
:10322000BFF35F8F0021116083F31088ABE606487F
:1032300000F028FA24184D4114E76568246806E771
:1032400034B500203C70054000400540492F001077
:10325000F0B5C646904600B5C16006001D000F00DF
:10326000FFF722FC1B4BD0229C46434612063370CC
:103270001268ABB2727001226044524280007381C6
:103280009B1830613281B2807380002D0BD06B00AF
:103290005D197469ED00104B2D192380013318342A
:1032A0009BB2AC42F9D143469A000C4B0124D65054
:1032B00043469C4040463C620949FFF769FC404652
:1032C0000121FFF72DFC074B9C4667443C6004BC82
:1032D0009046F0BD40000034FFFF000034B50020F0
:1032E000492F00103820000010B50A4C2369002B2C
:1032F00004D00A210848FFF7BBFD10BD0321074891
:1033000000F0B6F91023032220000449FFF7A0FFC4
:10331000EFE7C0468C0B002050B500200040054070
:10332000004870478C0B0020F0B501000469EFF3F2
:10333000108772B620680028FCD0BFF35F8F022090
:103340000D5E48696C0084466419E4006444002DF5
:1033500001DB208848800869BFF35F8F0026066084
:1033600087F31088002D2EDBE36063880598013316
:1033700020615B0406985B0CA26060611A1C002B44
:103380001FD090B22B04628018430A69EFF31086B5
:1033900072B61368002BFCD0BFF35F8F8B8823803D
:1033A0008D800B69BFF35F8F00221A6086F310884F
:1033B0000B7801329A40CB6804498C4663441A600A
:1033C000F0BD0122DDE701204042F9E73C2000008A
:1033D00070B582B01D0008AB1B7806001400002BEE
:1033E00007D100F057F922002B00121A8B41002B55
:1033F0000ADB079B22000193069B300000932B0001
:10340000FFF792FF02B070BD0020FBE730B54389A3
:103410000A14934233DD53009B184269DB00944643
:1034200004696344EFF3108572B62268002AFCD069
:10343000BFF35F8F5A88090494B2090C8A4208D0FE
:103440000369BFF35F8F00221A6085F310880020A4
:1034500030BD8022120214435C8001230269837113
:10346000BFF35F8F0021116085F310880549027852
:103470008C469340C268012062441360E8E7002054
:10348000E6E7C0463C20000040787047F0B50400F5
:103490000D0006267642F717C64636196F4100B56D
:1034A00084B08F4214D811D000F0F4F832003B0001
:1034B000121A8B41002B15DC002B3ED02000290076
:1034C00000F0F2F804B004BC9046F0BD8642EBD99F
:1034D0000026002700F0DEF832003B00121A8B4174
:1034E000002BE9DD002302930193154B320000937A
:1034F00014483B00FFF76CFF0028DFDB00239846F1
:10350000BC46114A114F7B6A9C4504D8B96A8E4269
:10351000D4D99C45D2D11168EFF3108072B60B68F4
:10352000002BFCD0BFF35F8F1368BFF35F8F414662
:10353000196080F3108820BFE5E7002ABED0D1E7EC
:10354000192F00108C0B002050B5002000400540C2
:1035500070B504000D0000F09DF8001969410029C4
:1035600002DBFFF793FF70BD012001494042F8E7FD
:10357000FFFFFF7FFA2210B500239200002101F027
:1035800061FFFFF7E5FF10BDF0B5CE46474680B5B9
:1035900004000D0085B0EFF30587002F0DD0314AF0
:1035A0000020536A8B4203D3926A0130A24249D36E
:1035B00005B00CBC90469946F0BD2B4B9846DB6895
:1035C0009946434648461E7800F05CF80B00494691
:1035D00002000436B600715820008E1A2900801AA5
:1035E00099418F4211DC0ED020BF1E4A0020536A41
:1035F000AB42DDD3926A0130A242D9D2EB1A581EF7
:103600008341D8B2D4E78642EED9002302930193D6
:10361000164B2200009340462B00FFF7D9FE011EF7
:1036200015DD104B2E005A6A954218D89B6AA342AA
:1036300013D34046FFF7EAFE0A4A0020536A9E422F
:10364000B6D8D7E75B1A581E8341D8B2B0E7054A0F
:103650000020536AAB42ABD3CCE79542E9D120BFFF
:10366000E7E7C046004005408C0B0020192F0010F2
:1036700010B5024A0248FFF7A5F910BD34E5001065
:10368000902C00200300416A0A00986A596A8A4215
:10369000FAD17047034B596A0A00986A596A9142F5
:1036A000FAD1704700400540064A536A9942FCD857
:1036B00007D1044B02E05A6A914202D19A6A8242CF
:1036C000F9D3704700400540F0B54F469946344B5A
:1036D000DE4646469C4644002418A400C0B5644417
:1036E00016006368089A8B46934200D26260031FFB
:1036F000DBB29846012B2ED9C0238022294F8500AA
:103700009B0179591201E3181A6000291AD1226825
:1037100076017240E0268023164042465B01E318A2
:103720001E60012A2ED9802380229B01E3181201FA
:103730001A60089B63604B467B511CBC90469946BF
:10374000A346F0BD786900F057FB431C5800C01831
:103750000338FDD2DBE75B46012BCDD1C02303222A
:103760009B01E3181A60023AA3681A42FCD0E023D6
:103770002268760156401E4080235B01E318094F02
:103780001E6085005A462168514003220A401A6093
:1037900001235A469340A2681342FCD0C3E7C046B7
:1037A00000800040942C0020064A4300944680226A
:1037B0001B189B00634412011A600022024B800018
:1037C000C250704700B00040942C0020F0B583B088
:1037D00005000E0018000899170000F00DFB089A6C
:1037E0000300140231003A0028000094FFF76CFF38
:1037F00003B0F0BD10B5802482B064000094FFF7E0
:1038000063FF02B010BDC046014B8000C058704736
:10381000942C0020802270B506000E4C5200A36943
:103820001D0015401342FAD1FA210B4B890018698B
:1038300000F0E2FA0A2310212060064A23610B3BC4
:103840006560A360666193691942FCD0D069400944
:1038500070BDC04680800040942C0020F0B5C64664
:10386000802506000F00140000B56D0082B0174BD4
:1038700001220121052000959846FFF725FF3B0016
:10388000320000940121124800F080F8210030003D
:10389000794300F0B1FA04000022022104200D4B0C
:1038A0000095FFF711FF230000220121052000955C
:1038B000FFF70AFF43460222002106200095FFF78A
:1038C00003FF02B004BC9046F0BDC046006CDC02B1
:1038D00000800240001BB700F0B5DE469B46264B39
:1038E00057469A46A0234E4645465B009946804679
:1038F000E0B583B00091019201235B429C46E14414
:103900004B460F2B35D01D4F1D4B072657449A456C
:103910002BD8340043463500B04674431E0004E003
:103920004346013DE41A002D19D02100380000F073
:1039300063FAB042F4D10029F2D14A464646114B0F
:1039400001205343009A1360019B1E605B461D607B
:1039500003B03CBC90469946A246AB46F0BD33004E
:103960004646013E9846002ED3D1074B9C46E24482
:10397000C2E70020ECE7C04670F72E00B0710B00E4
:1039800050F80C00001BB70020D1FFFFF8B5040071
:10399000204817001D000E0000F02EFA010038002C
:1039A00000F02AFA069A2B04120313432268002A15
:1039B0001FDB194AA21851424A41802149018C4615
:1039C00052420A40154962440A6015490A60154985
:1039D00017000D68AF43FBD1134A2660A1182122BE
:1039E000A0600A602268002AFCDAE36008230B600A
:1039F000F8BD3F2221680A40B242DAD1A26812051E
:103A0000120D8242D5D1EE21E268C9020A409A42E3
:103A1000CFD1EDE7001BB7000040FDBF00E0004044
:103A200000F0004008C0004004300000044B0001DA
:103A30001B685840F0231840024B18607047C0467E
:103A40000040064000500640024B18680006000F78
:103A50007047C04600400640020080234001801AA3
:103A60008000801800015B04984200D30448802243
:103A7000044BD2051860044B5860044B1A60704721
:103A8000FFFFFF0008B500200080054000A00540B2
:103A900010B5802403001000124AE4051460002BC6
:103AA0001AD00122104C1343104AD461104C5C40D0
:103AB00014625162936280220A4BD2051A600D494A
:103AC0000D4A1160E022D2041A60002807D180223A
:103AD0000A4B12061A6010BD044AD361EBE7FFF7E8
:103AE000BBFFF8E700B00540D3C007B00080054039
:103AF0002D3FF84FFCFF01000820014000A00540C9
:103B00008023024A9B000B43D3627047008005402C
:103B1000142310B50100188804331B88984710BD82
:103B2000162310B50100188802331B88984710BD72
:103B3000F0B5C64600B5002916D0142304000125AF
:103B400098461827890046184346216818883B88FC
:103B5000984701C4431E984140420540A642F3D114
:103B6000280004BC9046F0BD0125F9E7142370B588
:103B70000400188804331B880D000549984703008A
:103B80000020002C01DB0130A04029009847C046EE
:103B900055420000AA23064A1B0113608D235B00D7
:103BA000D3600449044B19605368002BFCDA70475A
:103BB0000040024000B0FA00006002407047C0467A
:103BC00010B50148FEF7E6FE58E5001070B5074B4A
:103BD000074C9C4209D2013B1D1BAD080135AD00CD
:103BE0002D1908CC9847AC42FBD170BDB49500109C
:103BF00078950010054B064A06491A60064A074B9D
:103C00001A6010000B689843FBD1704700E0004039
:103C1000BFCDFBFE08C00040FE7F3C0000F000402E
:103C2000044BDB6C002B03D18022034BD2021A60C1
:103C30007047C046000011504C201150044A054BFB
:103C40001A60054A1368DB018033FBD17047C04618
:103C5000FFFFFF0100F0004008C000404022034B7E
:103C60009A675A671A67DA667047C04600F00140E3
:103C700010B5FEF735FF10BD70B50C490C4C0D4D5D
:103C8000641AA6103200302E00D93022280092008B
:103C900001F0D4FD2F2E06D82A0007492C19C03276
:103CA00002C49442FCD1054B9D6070BD0001001020
:103CB000C001001000000020C101001000ED00E074
:103CC000002310B5294C82B0A367FFF763FF0122E0
:103CD000274B1A60636C012BFCD10322254B1A6021
:103CE000224A936B012BFCD1013300930121224A1C
:103CF00022480433FFF74AFE052301210093204A9E
:103D00002048FFF743FE0022022104201E4BFFF74C
:103D100071FD0022012105201C4BFFF76BFD0022E5
:103D2000002107201A4BFFF765FD00220021082023
:103D3000174BFFF75FFD8023DB000093002200217B
:103D40000920134BFFF742FD0022104B00210620F3
:103D5000FFF750FD0420FFF757FD0E4900F04CF827
:103D600001000020FFF7CCFE02B010BD0080004033
:103D70003CB0004030B00040002F68590080024045
:103D8000008C864700C00240001BB70040597307F3
:103D9000006CDC0240420F0001480421014B18472F
:103DA000B00B0020313B0010124A936F9B0815D2D4
:103DB0009066D166002905D0FFE7FFE7FFE7516F66
:103DC000106F704704B580210906C21751400028C2
:103DD00000D0C84305F080FB002104BDF0B5146E8F
:103DE000556E576F166FFFF7E3FF146655665767FA
:103DF0001667F0BD000000D0114A936F9B0813D2E4
:103E000010665166002905D0FFE7FFE7FFE7516F15
:103E1000106F704704B5002801D00020C04305F0A2
:103E20005BFB002104BDC046F0B5146E556E576FA4
:103E3000166FFFF7E5FF1466556657671667F0BD06
:103E4000000000D094464A4A926F9208624601D21E
:103E500028E0C046F0B5464E346E756E776F366F0B
:103E600000F020F89446424A146655665767166774
:103E70006246F0BD94463E4A926F9208624601D275
:103E800054E0C046F0B53A4E346E756E776F366FBB
:103E900000F04CF89446364A146655665767166724
:103EA0006246F0BD002B24DB11D000293EDA00B5BC
:103EB000C943404200D1013100F038F8C9434042C3
:103EC00000D10131DB43524200D1013300BD002A51
:103ED000EBD1002801D1002905D00020C90FC90766
:103EE00001D1C043410800B505F0EEFA00220023DD
:103EF00000BD00B500290ADBDB43524200D101338B
:103F000000F014F8C943404200D1013100BDC9435B
:103F1000404200D10131DB43524200D1013300F075
:103F200005F8DB43524200D1013300BD002923D103
:103F3000002B18D1002A0CD0BC460D4F38667A668B
:103F400000210023FFE7FFE7FFE77A6F386F67463E
:103F50007047002801D00748010000B505F0B4FA09
:103F60000022002300BD02000B000020002170474A
:103F7000000000D0FFFFFFFF002B00D0BFE0130CBC
:103F800028D1002AE7D080B4114F39667A66FFE75E
:103F9000FFE730B4040C7B6F396F1B0423433B668F
:103FA0007A66FFE7FFE7FFE7C04684B27B6F3D6FAD
:103FB0001B0423433B667A66FFE7FFE7C046002306
:103FC0002C042D0C7A6F386F00196941B0BC704712
:103FD000000000D0F0B594460025140E01D1120265
:103FE0000835140F01D112010435940F01D192004C
:103FF0000235D40F01D152000135D40B0134254FC5
:104000007C66254C3C660E0C93B2FFE7FFE7FFE7AA
:104010003C6F6643360C7703BE467343DF0B5B048D
:10402000C01AB941130C7343DB18C91ACE08664392
:10403000360CB64493B273431F0F1B01C01AB9412B
:10404000130C73431F0B1B05C01AB941860D8F0259
:104050003E436643360C092D24DB520A7243801A14
:104060007703460A6643360C16235B1BDE40DF40AF
:10407000BF1964466643821B70460435063301004F
:10408000D940A840C01900D30131A24206D2002372
:10409000F0BD0000000000D0FFFFFFFF121B013049
:1040A000F3D3F1E709277F1BFE406446A2B27243B7
:1040B000801A00D20139220C7243130C1204821AA6
:1040C00099410B007046043513370100F940A840B0
:1040D000801900D30131002B02D1A2420AD2F0BDD7
:1040E000013000D30131121BFAD2013BF8D1A242B8
:1040F00000D2F0BD013000D30131121BF7E7F0B55B
:104100001C0C00D080E00CB400251C0A04D11B025A
:10411000160E3343120208351C0B04D11B01160F77
:104120003343120104359C0B04D19B00960F33439B
:1041300092000235DC0B02D192185B4101351C0064
:10414000971864410134464F7C66464C3C660E0C21
:10415000FFE7FFE7FFE7C0463C6F6643360C770397
:10416000BE4697B27743C01B00D20139C01B00D2B4
:1041700001399FB27743C91BC91B170C77437E04D3
:10418000FF0B801BB941CE086643360C0C2D33DB88
:10419000B644120B1F053A431B0B97B27743C01B63
:1041A00000D201399FB27743C91B170C77433E04F5
:1041B0003F0C801BB941860D8F023E436643292781
:1041C0007F1BFE400C3D7746AF40BF1930BCA2B20A
:1041D000ABB272437343801A9941220C7243130CA1
:1041E0001204801A994102000B000137001BA941FB
:1041F000F9D2781E0021F0BD0C277F1BFE407746C8
:104200007F0BAF40FF19E0E700245D1C07D0144F7F
:104210007D663966FFE7FFE7FFE7FFE73C6F95B292
:104220009EB265436643401BB141150C1E0C6543AD
:10423000664336042F0C3E432D04401BB141994286
:1042400004D202000B0020000021F0BD01D19042F9
:10425000F7D3801A994101349942F2D3F6E700006E
:10426000000000D0FFFFFFFF44464D4656465F4624
:10427000F0B47047F0BCA046A946B246BB467047B2
:1042800048404140484018B41B4B5B68FC460193D2
:1042900008BD04DF5348001018B4174B1B68FC46D8
:1042A000019308BD00DF5D4800109446134A926FE9
:1042B000920809D2624618B40F4BDB68FC460193A2
:1042C00008BD0CDF154B00100C4AF0B5146E556E8E
:1042D000576F166F6246FFF7EEFF084A1466556681
:1042E00057671667F0BD18B4034B9B68FC460193F3
:1042F00008BD08DFB9490010E4B50020000000D077
:10430000FFB550404240504059404B40594000E0BA
:10431000FFB5154F4C00640D03D0BC4204D10C0313
:1043200014D80020090D09055C00640D03D0BC42BF
:1043300004D11C030AD800221B0D1B0501264B408B
:1043400009D44B4003D58B4200D18242FFBD994234
:10435000FCD19042FFBD0B43DB1803431343F5D060
:10436000C9434918FFBD0000FF07000000B5FFF773
:10437000CFFF804100BDC04600B5FFF7C9FF01D99E
:10438000002000BD012000BD00B5FFF7B9FF01D935
:10439000002000BD012000BD00B5FFF7B1FF804146
:1043A00000BD012040054A00121804D85A00121816
:1043B00001D800207047012070470000002100282C
:1043C00005D17047C1174840401AFAD0C90713B544
:1043D000064B1B6898470CBC441CA2401005120BEE
:1043E0000349091B09051943114310BD4CB50020B1
:1043F0001F04000010B54C00620D8023D218DB00B2
:10440000D21A5B057E2A10DD9E3A13DACC17090317
:10441000490819435242D140640001341532202A20
:1044200005DAD0400843604310BD002010BD0846A7
:10443000604310BDC80FC018013810BD18B4044B3C
:104440005B6AFC46019308BD24DFF14E00100000BA
:10445000E4B5002018B4044B1B6EFC46019308BD64
:1044600060DFFF4F00100000E4B5002018B4044BDB
:10447000DB6FFC46019308BD7CDF894F0010000014
:10448000E4B5002018B4044B9B69FC46019308BDB9
:1044900018DFE14C00100000E4B50020024A034B95
:1044A00000B500F0B9F900BD182D4454FB211940A6
:1044B0008A0002D3920D092A08DA18B4064BDB6B86
:1044C000FC46019308BD3CDF3351001000B5FFF7F7
:1044D000E5FF04BC9646F0E7E4B500208A0002D36D
:1044E000920D092A08DA18B4064B1B6CFC4601939E
:1044F00008BD40DF4351001000B5FFF7CFFF04BCFB
:104500009646F0E7E4B50020132370B51C78012C23
:1045100019D014DD1148FFF703FB06001048FFF720
:10452000FFFA104D80223100280001F087F9022C9B
:1045300006D00D48FFF7ECFA0C4B186070BD094D22
:104540000B4AAA64F5E7074D094A29002B00803180
:1045500004C38B42FCD1AA64EBE7C046534400007D
:1045600053460000E4B500204C3300004CB5002059
:1045700021480010F0B557464E464546DE46E0B5A8
:1045800085B01F000E9B04000D0016009A46002BFC
:104590005DDD012039114042FFF72EFC002303901E
:1045A0009B461BE022009A40019223004A4693401A
:1045B000009343463200D91740463B0000F042FFCB
:1045C000009C019D5B464A46934043449B465346AC
:1045D0009B1A241A8D419A46002B1DDD5346D14665
:1045E0000C2B01DD0C239946039AAB11534349462A
:1045F0001D22521A1341202201335B105242984669
:104600008B18CFD5202322005B1ADA4013002A0032
:104610008A401A430192C8E7AF421CDC29D020002F
:104620002900801BB9418F4238DC35D002239C46DB
:10463000801BB941E3440F9B002B01D05A461A60FE
:1046400005B03CBC90469946A246AB46F0BD8F42B1
:1046500017DD00239B462000291EECDA80197941E2
:10466000002909DA02235B429C4680197941E34420
:10467000E1E7A642D3D9EEE701235B429C46E3443F
:10468000D9E78F4201D18242E3D8200029000023DC
:10469000801BB9419B4601E08642C7D901239C4655
:1046A000E344C8E7F0B54646D6464F461C00804670
:1046B000C0B588B01000109A4B006500C4465B0D71
:1046C0006D0D002A02D00022109E32604B4A9342A8
:1046D00052D0002D50D0002B57D0954262D06A1E88
:1046E0009A425FDCCE0F0F03B1463E0BB2466646E0
:1046F000049680267603B4465746029060463E43B1
:10470000270305963E0B304303909A4240D04A4619
:10471000002A06D0049E059F00227142BA410491EE
:1047200005920498059907AA5B1B01920093029ACF
:10473000039BFFF71FFF06000F0002000B0002980B
:10474000039992197B4194468B422FDC2CD0029A1C
:10475000944544D0002C02DA079B5B420793109BE0
:10476000002B01D0079A1A60254A30003900521BED
:10477000FFF770FE060001E000262249300008B075
:104780001CBC90469946A246F0BD00260021F5E7E4
:10479000059B834212DC029D039EB34202D1049B1F
:1047A000AB420BD84646E9E78242D0D9079B01339A
:1047B0000299039A0793761A9741CBE74B46029EDC
:1047C000039F04980599B6197F41002B0ED1801BD9
:1047D000B941013306000F0015000793BAE7039AA9
:1047E0009342B7D1079BDA07B4D5E0E701235B42D8
:1047F000361A8F4115000793ACE7C046FF0700004B
:10480000330400000000F07F10B5002482B0009453
:10481000FFF748FF02B010BD10B5FFF7F5FF10BD60
:1048200007B5604601880A0A0230DF2AFAD1C9B208
:10483000820804D3028840880004104300E0006826
:10484000014A5050039007BDE4B500200FB403BCEB
:104850000CBCF0B50124E407634000E0F0B50C0D9A
:10486000CF0F661E3605891B640503D3C94340423A
:1048700000D30131640D03D0661CF60A07D0E41B97
:1048800000207F00791C89078912803C24031D0DBC
:10489000DF0F6E1E36059B1B6D0503D3DB435242B3
:1048A00000D301336D0D03D06E1CF60A07D0ED1B4B
:1048B00000227F007B1C9B079B12803D2D032F1B3A
:1048C000661B58D4A446202E46DA20371400BC407C
:1048D0001D00BD40F24033412A4380185941CB0F9F
:1048E00005D0C943C0430022644250415141624651
:1048F0004D0D28D10D0D07D100281FD0241940419E
:104900004941013A0D0DF9D0640006D3013000D3BE
:104910000131002C01D140084000013A0BD4941C15
:10492000E40A04D112051144DB071944F0BDD9078C
:10493000204B194300E0D9070020F0BD0029DDD14C
:10494000002CDBD1F0BD0132C6074008CD0728435B
:104950004908002EE1D0D9E73C2E29DA203E403725
:104960001400BC4000D00124F24014431A00BB40A4
:104970001C43D317ACE7AC46202F08DA20360400DE
:10498000B4400D00B540F84039412843A5E73C2F1D
:104990000CDA203F40360400B44000D00124F84037
:1049A00004430800B1400C43C117EAE710001900A6
:1049B000002494E70000F07FF0B50C0D661E36056C
:1049C000891BE60A6405640D02D0651CED0A04D05B
:1049D000002001210905803C2403A4461C0D671E0C
:1049E0003F05DB1BE70A6405640D02D0651CED0A78
:1049F00004D0002201231B05803C2403774064443B
:104A000097B484B296B27443070C7E43150C6F437F
:104A100080B26843361802D3012000043F183004E6
:104A2000350C00197D41844688B29AB250430C0C73
:104A300062431F0C7C438EB27E43921902D301263F
:104A40003604A4191604170C3618674101BC81B24C
:104A50009AB25143040C62431B0C5C4380B258432E
:104A6000121802D30120000424181004130C40185B
:104A700063412D185E410020474106BC88B293B2C5
:104A800058430C0C6343120C544389B251435B18D6
:104A900002D301210904641819041A0C091862418F
:104AA0006D1856410020474118BCF902720D1143A0
:104AB000F0026A0D1043ED020A0D03D16D19404159
:104AC0004941013B124E9B1B7600B3420ED26D0052
:104AD00007D30130002671416646354301D14008B5
:104AE00040001B05C918E4072144F0BD0BDA01336F
:104AF00006D1013004D101314F0D01D04908F2E750
:104B0000E1070020F0BD013631050020EBE7000091
:104B1000FF030000F0B51C0D671E3F05DB1BE70A15
:104B20006405640D02D0661CF60A04D0002201233D
:104B30001B05803C2403D0252D060026F6432E6657
:104B40001E096E66CE0FF619B44649004F0D02D00D
:104B50007E1CF60A03D000200021403F3F033E1B8D
:104B6000B600B444013F7F05C91B49082E6F0136CA
:104B700076089C02950D25437543ED137543AD13DF
:104B800001356D10F603761B0CB4CC02450D2C4399
:104B9000A2B2B3B25A43270C7B43350C6F43A4B285
:104BA0006C431B1902D3012424043F191C041D0C5F
:104BB000A4187D4124196D41009A91B2ACB26143B1
:104BC000170C7C432B0C5F4392B25A43A41802D3B8
:104BD00001221204BF182204230C52187B41019CAD
:104BE0006C431B19520ED9010A434401A01A81B229
:104BF000B2B2514303145A43360C734387B277431E
:104C0000D617D21900277E4136049B191704160CBB
:104C10007F185E417316ED18F3010026803375414D
:104C2000A90F06D16400690AE8055B0A184309D296
:104C30002FE00422944480337541A90AA8059B0AF9
:104C4000184326D3404149412404009A019B0D009A
:104C50005543641B4343E41A95B286B27543170C5F
:104C60007E43030C5F4392B25A43B61802D301222B
:104C70001204BF183204330C52197B4152429C413A
:104C8000002C02D40022013051414008CA071043D1
:104C9000490802B06246D7079210084BD218084B59
:104CA0009A4203D212058918C919F0BD0020002AC2
:104CB00001DC3900F0BD01331905F5E7FD03000003
:104CC000FE07000007DA002107E0C90FC907520DEF
:104CD00003D0C91201E04C49090500207047C046C5
:104CE0004A00F2D2520D013A484B9A42EAD2F0B54C
:104CF0001405091B520801D3001849419B08D2181A
:104D00001205944640A44A0CA25C0B09534353433A
:104D10001B1353435B131202D21A13005B435B0B4A
:104D20004C086343DB135343DB1501335B10D21A8A
:104D3000130CD21A13005B438902840D21438DB2F8
:104D40009EB275430F0C7E431B0C5F438CB25C43D9
:104D5000361902D3012424043F193404330C641996
:104D60007B419D01A40E2C432034A5B2554324144D
:104D700054432D0C6419A411D203121B95B28EB2A8
:104D80007543170C7E430C0C674393B26343F618CC
:104D900002D301231B04FF183304340C5B197C413C
:104DA000DB186441DB18002363419EB276439DB259
:104DB0001F0C7D437F436C04ED0BA4197D4106025B
:104DC0008F08361BAF417D07F6086E41B4B295B22D
:104DD0006C4337147D43120C5743B6B25643EA175F
:104DE000AD19002672411204BF182E042A0C361980
:104DF0007A410832521117D29D0A9C05D117101919
:104E000069416144F0BD0000FF070000FE0700009B
:104E1000F8EBDFD6CDC5BEB8B2ADA8A4A09C9995DD
:104E2000928F8D8A8885838152415D0ADC05D11776
:104E300014194D412B006343A6B27643A2B2270C4E
:104E40007A437F435104D20B89197A41D218D21880
:104E500080054942904102D4002301345D4160083D
:104E60006908ED0728436144F0BDC046624618CA90
:104E700094465A46002A20DB04E0624618CA94464B
:104E800000291ADAC01861415B463B415C46B440D8
:104E90005246FA40224344464D4662416B41904699
:104EA00099462B46B3403D41FC401C4352465B466D
:104EB000A241AB4192469B467047C01AA1414B4666
:104EC0003B414C46B4404246FA40224354465D467C
:104ED00062416B4192469B462B46B3403D41FC40AC
:104EE0001C4342464B46A241AB419046994670470F
:104EF000002200B5203200F010F8080000BD0022AA
:104F000000B500F00CF8CA179A4200D100BDD84392
:104F10000121C907414000BD00220B150AD410B57C
:104F2000944600F0A7F81414013400DA0021CB17DE
:104F3000144C20470020002170476244343A0CD4BE
:104F40000C2A07DA04009140904052422032D440AB
:104F5000214310BDD843D94310BD203207D40C469D
:104F60009440524220321141D040204310BD0800ED
:104F7000C917203203D452422032104110BD18000C
:104F8000190010BD3B4F00104A00520D144BD21AAD
:104F900013DDFF2A1EDAD205CB0FDB071A43C3004D
:104FA000400F0903490A084310435B0001D301D0B5
:104FB000013070474308FBD2704702D0C80FC007CA
:104FC00070470A0312130132F8D1420F072AF5D1B4
:104FD000012200E0FF22C80F00028018C0057047C0
:104FE0008003000000210A00002104E000210A00E3
:104FF000C11704E00022002306E0C0460022CB17C0
:1050000058405940C01A994130B5184CA21A00298D
:1050100003D1010010D00020203A4C1512D104D247
:10502000013A001849414C0DFAD3114CA24204D266
:1050300012058918DB07C91830BDD243520D002074
:105040000021F5E703D4013A00184941FBD50B32A2
:105050004405C00A4D052843C90A640003D0002452
:1050600060416141E1E7E0D34408F8E73204000021
:10507000FE0700000A0DCC0F531E1B05C91A52056E
:1050800003D3C943404200D30131520D03D0531C16
:10509000DB0A07D0121B00206400611C89078912FB
:1050A000803A1203014BD21A70470000FF03000040
:1050B000023225D40C2A1CDA1125AD1A0B002B4123
:1050C000083207350600EE40904091403143F0CC65
:1050D00063431A1500235A41554356435743BF02B1
:1050E000F412760576196741ED177F19801BB941D7
:1050F00070470C220020C917490001310905DBE780
:105100000902030E194300025342203208D40C0056
:1051100019419440D84020430022504151417047EA
:105120000800C917203B2032F1D5002000210022C1
:105130007047F0B5FFF798F800F00EF800F030F87F
:1051400006E0F0B5FFF790F800F006F800F046F83A
:10515000FFF790F8F0BD000000B5FFF78BFF30A41B
:10516000FFF7A6FF00242C4D2C4ED20702D3F643A6
:105170006D426641520004D2A246A346A846B146FB
:1051800003E0A046A146AA46B3466EA4A446012762
:105190001F26FFF772FE0137013E212FF9D100BD16
:1051A000594684B28DB26C43061475430B145E43AA
:1051B00082B25A43AD18EA1700D7D2431204B61888
:1051C0002A042B0C12197341404649469D009B1737
:1051D000920F2A43904199413E2210E7494684B2FA
:1051E0008DB26C43061475430B145E4382B25A436E
:1051F000AD18EA1700D7D2431204B6182A042B0CB4
:1052000012197341504659469D009B17920F2A432D
:10521000504159413E22F2E6BB4DF09DC556F6364F
:105220007D5100001A61140085880A00FB211900D5
:10523000F0B5FFF719F8404D0C002C4001D0AC42FE
:1052400002D1090D090500201C002C4001D0AC4200
:1052500002D11B0D1B0500220026ED02002B04D5F8
:1052600002266B40694000D476424F1904D599421A
:105270000CDD0136694003E0BB4207DA013E6B40BA
:10528000070010003A000F0019003B0040B4002A4C
:105290000FD1002B0AD05C006415013409D14C00F9
:1052A0006415013402D10139013B02E000200021E4
:1052B0002EE0FFF72FFC3E22FFF722FE82468B46B0
:1052C0000020002180460122920791461DA4A44699
:1052D00001271F26FFF7CAFD0137013E212FF9D113
:1052E0004A4653460C3A01246407002752081B0023
:1052F00005D49341001979416408F7D104E0534182
:10530000001BB9416408F1D1CE0749104008304371
:1053100040BC002E0AD0094C094D01D5E443ED43B1
:10532000F60701D100196941001969413D22FFF7D3
:1053300066FEFEF79FFFF0BD0000F07F8D305A88BB
:10534000A8F64332694FBB610567AC1DB16E40964C
:10535000FCBAAD0F72DB0BABA66EF50739BD9FE54E
:1053600076ABFE034B6297BA5BD5FF01D694DBDDCB
:10537000AAFAFF005DEAEE5655FF7F006E77B7AAE6
:10538000EAFF3F00BCBB5555FDFF1F00DEADAAAADA
:10539000FFFF0F006F5555F5FFFF0700ABAAAAFEF0
:1053A000FFFF03005555D5FFFFFF0100ABAAFAFF31
:1053B000FFFF00005555FFFFFF7F0000ABEAFFFF36
:1053C000FF3F000055FDFFFFFF1F0000ABFFFFFF89
:1053D000FF0F0000F5FFFFFFFF070000FFFFFFFFCB
:1053E000FF030000000000000002000000000000B9
:1053F000000100000000000080000000000000002C
:10540000400000000000000020000000000000003C
:105410001000000000000000080000000000000074
:105420000400000000000000020000000000000076
:1054300001000000000000800000000000000040AB
:105440000000000051434343C9188C46110C83B23D
:105450004B4310B4040C614392B280B25043624398
:105460001C041B0C001910BC59411304120CC01869
:1054700051416144704700004840414048400E4B54
:105480005B6818470C4B1B6818470C4A936F9B08C6
:1054900002D2094BDB681847F0B5146E556E576F92
:1054A000166FFFF7F6FF054A1466556657671667CD
:1054B000F0BD014B9B681847E4B60020000000D007
:1054C00007B548404140484001E0C04607B54200AA
:1054D000120E03D0FF2A03D1420218D8C00DC00516
:1054E0004A00120E03D0FF2A03D14A020FD8C90D79
:1054F000C9050122414005D4414001D5814207BD83
:10550000884207BD0143491801D0C043001807BDB8
:1055100000B5FFF7D5FF804100BD01231B06420007
:10552000D21804D84A00D21801D8002070470120B0
:105530007047491A002807D108467047C10FC907AC
:1055400000D54042002817D0F44603B40B4B1B682B
:10555000984706BC81409E384042803107D20B06F6
:1055600007D04900490AC00510430843604701308D
:10557000F8E7490A8902F5E7704700004CB50020BA
:10558000014B1B6B18470000E4B60020034BDB6F98
:10559000FC4618477CDFF15700100000E4B60020FD
:1055A000C11502D4054B9B691847C843FF2801D198
:1055B000C0077047C817C00570470000E4B6002058
:1055C0004100090E862902DA044BDB6B18470449B7
:1055D00000B500F0F3F802BC8E46F5E7E4B6002013
:1055E000DB0FC940132310B510481C78FEF798FA5A
:1055F0000100012C0AD003DD80220D4800F01EF9C5
:105600000C48FEF785FA0C4B186010BD084C54226C
:10561000200000F013F923002100084A54338031A0
:1056200004C38B42FCD12262E261E9E753460000E9
:10563000E4B600204C3300004CB50020C5570010E4
:10564000F8B54746CE46050080B516000F009846CF
:10565000002A2CDD0120C9114042FEF7CDFB0022BB
:1056600081461D2033000C2E00DD0C2349466C12B0
:105670009D404C43C11A0C41AC46013464102500D6
:1056800061469A407D4312194D1BF61A002EE9DC43
:10569000AF420FDCE81B874217DCC01B02324346D7
:1056A000002B00D01A600CBC90469946F8BD884289
:1056B00009DA0022281EF2DA781902D5C019023A56
:1056C000EDE7013AEBE70022E81B0132E7E7C046CD
:1056D000F0B54746CE46FF2480B5C30DCD0D16006C
:1056E00083B00F1C23402540002A01D000223260E5
:1056F000FF2B3ED0002D3CD0002B3DD0FF2D33D0D2
:105700006A1E9A4230DC80242404A046C10F8946D8
:105710004102490A0C43A44644467902490A0C4313
:10572000A0469A422AD04A46002A02D062465242F5
:1057300094465A1B414601AB6046FFF781FF430088
:10574000434527DD019B42460133801A0193002F18
:1057500002DA019B5B420193002E01D0019B336072
:105760009621491BFFF70CFF03B00CBC90469946ED
:10577000F0BDFF20C005F7E70020F5E7A445F3DD05
:105780004A46002A0CD162466000101A01221D0010
:105790000192DCE74345DAD1019BDA07D7D5D2E79E
:1057A00062466000801A012252421D000192CEE73B
:1057B00010B50022FFF78CFF10BDC04610B5FFF7F3
:1057C000F7FF10BD07B5604601880A0A0230DF2ADC
:1057D000FAD1C9B2820804D3028840880004104379
:1057E00000E00068014A5050039007BDE4B6002075
:1057F000C30FDB0741000A0E07D0FF2A08D00909B2
:10580000054A89181943400770471900002070475E
:105810000249C918FAE70000000000380000F07FD4
:1058200001480421014B1847C00B0020313B0010F8
:10583000014B1B6818470000C00B0020014B5B6840
:1058400018470000C00B00209A4200D288547047CD
:105850007047C046F8B557464E46DE464546E0B569
:105860001F000A9B05009B460D9B0E009146924629
:105870009B0718D10B9B0C9A934214D213000B9ADE
:10588000B8469B1A4B444C460F0006001D002200F0
:105890004346013439002020B047AC42F7D1AA4634
:1058A00035003E0047460B9B002B38D09A441C0025
:1058B000D04653461A1B5B46013C185D31003B0045
:1058C000A847002CF5D10D9B9B0721D543464A469E
:1058D0009C1A0C9BA3421BD93A009A464F4691460C
:1058E000E2194B46310020200134A8475445F7D334
:1058F00043460C99DB1B0133B94600228B4203D887
:1059000043464A1E4A44D21A4346013398469044BD
:1059100040463CBC90469946A246AB46F8BDD046B0
:10592000D1E7C046F0B54F464646D646C0B584B02E
:1059300098460EAB1B78129F994694460D9C109B7F
:10594000119EBA0725D4002E69D19C4200D3C4E031
:1059500001223A4092461F2C00D9BDE00C9A551EF8
:10596000302201E0202C03D001342A55A342F9D87B
:105970005246002A0DD0B4420BD21F2C62D80C9A8A
:10598000551E302201E0202C5CD001342A55B4424F
:10599000F9D1FA0635D57A055DD4002C57D10F9B85
:1059A000102B00D17EE00F9B022B00D18FE0302323
:1059B0000C9A012413704B46002B27D02D230C9AF0
:1059C000135501340C9B624600930397434602969D
:1059D0000194FFF73FFF04B01CBC90469946A246D5
:1059E000F0BDBB0665D4202CECD00C9B1A190134F9
:1059F00078231370202CE5D030220C9B1B191A70D1
:105A00000134202CDED04B46002BD7D17B0736D477
:105A10003B07D7D520230C9A13550134D2E7012236
:105A200015003D40AA463A4221D04A46002A2BD1D1
:105A30000C323A4228D19C429DD21F2C00D88DE7CF
:105A4000202E1AD92024FA06BCD57A0503D4A34205
:105A50001CD0A6421AD00F9B102BC2D00F9B022B3A
:105A6000C8D1202CAED00C9B1B19013441E09C42C4
:105A700000D38EE71F2C00D870E7202489E72B2362
:105A80000C9A135501349DE7013ED4E7631E012CA7
:105A900000D184E70F9A102A21D00F9A022A25D02C
:105AA0001C00A9E7BB060DD478230C9A01241370BF
:105AB000A2E7202C00D185E758220C9B1B191A70F5
:105AC000013497E758230C9A0124137094E70C9A39
:105AD0006033012413708FE72024002659E7023C2D
